{
  "contractName": "ERC20Vestable",
  "abi": [
    {
      "constant": true,
      "inputs": [],
      "name": "totalSupply",
      "outputs": [
        {
          "name": "",
          "type": "uint256"
        }
      ],
      "payable": false,
      "stateMutability": "view",
      "type": "function"
    },
    {
      "constant": true,
      "inputs": [
        {
          "name": "account",
          "type": "address"
        }
      ],
      "name": "isGrantor",
      "outputs": [
        {
          "name": "",
          "type": "bool"
        }
      ],
      "payable": false,
      "stateMutability": "view",
      "type": "function"
    },
    {
      "constant": false,
      "inputs": [
        {
          "name": "sender",
          "type": "address"
        },
        {
          "name": "recipient",
          "type": "address"
        },
        {
          "name": "amount",
          "type": "uint256"
        }
      ],
      "name": "transferFrom",
      "outputs": [
        {
          "name": "",
          "type": "bool"
        }
      ],
      "payable": false,
      "stateMutability": "nonpayable",
      "type": "function"
    },
    {
      "constant": false,
      "inputs": [
        {
          "name": "account",
          "type": "address"
        }
      ],
      "name": "removeGrantor",
      "outputs": [],
      "payable": false,
      "stateMutability": "nonpayable",
      "type": "function"
    },
    {
      "constant": false,
      "inputs": [
        {
          "name": "spender",
          "type": "address"
        },
        {
          "name": "addedValue",
          "type": "uint256"
        }
      ],
      "name": "increaseAllowance",
      "outputs": [
        {
          "name": "",
          "type": "bool"
        }
      ],
      "payable": false,
      "stateMutability": "nonpayable",
      "type": "function"
    },
    {
      "constant": false,
      "inputs": [
        {
          "name": "to",
          "type": "address"
        },
        {
          "name": "value",
          "type": "uint256"
        }
      ],
      "name": "safeTransfer",
      "outputs": [
        {
          "name": "ok",
          "type": "bool"
        }
      ],
      "payable": false,
      "stateMutability": "nonpayable",
      "type": "function"
    },
    {
      "constant": false,
      "inputs": [
        {
          "name": "from",
          "type": "address"
        },
        {
          "name": "to",
          "type": "address"
        },
        {
          "name": "value",
          "type": "uint256"
        }
      ],
      "name": "safeTransferFrom",
      "outputs": [
        {
          "name": "ok",
          "type": "bool"
        }
      ],
      "payable": false,
      "stateMutability": "nonpayable",
      "type": "function"
    },
    {
      "constant": false,
      "inputs": [
        {
          "name": "account",
          "type": "address"
        },
        {
          "name": "isUniformGrantor",
          "type": "bool"
        }
      ],
      "name": "addGrantor",
      "outputs": [],
      "payable": false,
      "stateMutability": "nonpayable",
      "type": "function"
    },
    {
      "constant": true,
      "inputs": [
        {
          "name": "account",
          "type": "address"
        }
      ],
      "name": "isUniformGrantor",
      "outputs": [
        {
          "name": "",
          "type": "bool"
        }
      ],
      "payable": false,
      "stateMutability": "view",
      "type": "function"
    },
    {
      "constant": true,
      "inputs": [
        {
          "name": "account",
          "type": "address"
        }
      ],
      "name": "balanceOf",
      "outputs": [
        {
          "name": "",
          "type": "uint256"
        }
      ],
      "payable": false,
      "stateMutability": "view",
      "type": "function"
    },
    {
      "constant": false,
      "inputs": [],
      "name": "renounceOwnership",
      "outputs": [],
      "payable": false,
      "stateMutability": "nonpayable",
      "type": "function"
    },
    {
      "constant": true,
      "inputs": [],
      "name": "owner",
      "outputs": [
        {
          "name": "",
          "type": "address"
        }
      ],
      "payable": false,
      "stateMutability": "view",
      "type": "function"
    },
    {
      "constant": true,
      "inputs": [],
      "name": "isOwner",
      "outputs": [
        {
          "name": "",
          "type": "bool"
        }
      ],
      "payable": false,
      "stateMutability": "view",
      "type": "function"
    },
    {
      "constant": false,
      "inputs": [
        {
          "name": "spender",
          "type": "address"
        },
        {
          "name": "subtractedValue",
          "type": "uint256"
        }
      ],
      "name": "decreaseAllowance",
      "outputs": [
        {
          "name": "",
          "type": "bool"
        }
      ],
      "payable": false,
      "stateMutability": "nonpayable",
      "type": "function"
    },
    {
      "constant": true,
      "inputs": [
        {
          "name": "account",
          "type": "address"
        }
      ],
      "name": "isRegistered",
      "outputs": [
        {
          "name": "ok",
          "type": "bool"
        }
      ],
      "payable": false,
      "stateMutability": "view",
      "type": "function"
    },
    {
      "constant": false,
      "inputs": [],
      "name": "registerAccount",
      "outputs": [
        {
          "name": "ok",
          "type": "bool"
        }
      ],
      "payable": false,
      "stateMutability": "nonpayable",
      "type": "function"
    },
    {
      "constant": true,
      "inputs": [
        {
          "name": "owner",
          "type": "address"
        },
        {
          "name": "spender",
          "type": "address"
        }
      ],
      "name": "allowance",
      "outputs": [
        {
          "name": "",
          "type": "uint256"
        }
      ],
      "payable": false,
      "stateMutability": "view",
      "type": "function"
    },
    {
      "constant": false,
      "inputs": [
        {
          "name": "newOwner",
          "type": "address"
        }
      ],
      "name": "transferOwnership",
      "outputs": [],
      "payable": false,
      "stateMutability": "nonpayable",
      "type": "function"
    },
    {
      "constant": false,
      "inputs": [
        {
          "name": "spender",
          "type": "address"
        },
        {
          "name": "value",
          "type": "uint256"
        }
      ],
      "name": "safeApprove",
      "outputs": [
        {
          "name": "ok",
          "type": "bool"
        }
      ],
      "payable": false,
      "stateMutability": "nonpayable",
      "type": "function"
    },
    {
      "anonymous": false,
      "inputs": [
        {
          "indexed": true,
          "name": "vestingLocation",
          "type": "address"
        },
        {
          "indexed": false,
          "name": "cliffDuration",
          "type": "uint32"
        },
        {
          "indexed": true,
          "name": "duration",
          "type": "uint32"
        },
        {
          "indexed": false,
          "name": "interval",
          "type": "uint32"
        },
        {
          "indexed": true,
          "name": "isRevocable",
          "type": "bool"
        }
      ],
      "name": "VestingScheduleCreated",
      "type": "event"
    },
    {
      "anonymous": false,
      "inputs": [
        {
          "indexed": true,
          "name": "beneficiary",
          "type": "address"
        },
        {
          "indexed": true,
          "name": "vestingAmount",
          "type": "uint256"
        },
        {
          "indexed": false,
          "name": "startDay",
          "type": "uint32"
        },
        {
          "indexed": false,
          "name": "vestingLocation",
          "type": "address"
        },
        {
          "indexed": true,
          "name": "grantor",
          "type": "address"
        }
      ],
      "name": "VestingTokensGranted",
      "type": "event"
    },
    {
      "anonymous": false,
      "inputs": [
        {
          "indexed": true,
          "name": "grantHolder",
          "type": "address"
        },
        {
          "indexed": true,
          "name": "onDay",
          "type": "uint32"
        }
      ],
      "name": "GrantRevoked",
      "type": "event"
    },
    {
      "anonymous": false,
      "inputs": [
        {
          "indexed": true,
          "name": "account",
          "type": "address"
        }
      ],
      "name": "GrantorAdded",
      "type": "event"
    },
    {
      "anonymous": false,
      "inputs": [
        {
          "indexed": true,
          "name": "account",
          "type": "address"
        }
      ],
      "name": "GrantorRemoved",
      "type": "event"
    },
    {
      "anonymous": false,
      "inputs": [
        {
          "indexed": true,
          "name": "account",
          "type": "address"
        }
      ],
      "name": "AccountRegistered",
      "type": "event"
    },
    {
      "anonymous": false,
      "inputs": [
        {
          "indexed": true,
          "name": "previousOwner",
          "type": "address"
        },
        {
          "indexed": true,
          "name": "newOwner",
          "type": "address"
        }
      ],
      "name": "OwnershipTransferred",
      "type": "event"
    },
    {
      "anonymous": false,
      "inputs": [
        {
          "indexed": true,
          "name": "from",
          "type": "address"
        },
        {
          "indexed": true,
          "name": "to",
          "type": "address"
        },
        {
          "indexed": false,
          "name": "value",
          "type": "uint256"
        }
      ],
      "name": "Transfer",
      "type": "event"
    },
    {
      "anonymous": false,
      "inputs": [
        {
          "indexed": true,
          "name": "owner",
          "type": "address"
        },
        {
          "indexed": true,
          "name": "spender",
          "type": "address"
        },
        {
          "indexed": false,
          "name": "value",
          "type": "uint256"
        }
      ],
      "name": "Approval",
      "type": "event"
    },
    {
      "constant": true,
      "inputs": [
        {
          "name": "grantHolder",
          "type": "address"
        }
      ],
      "name": "getIntrinsicVestingSchedule",
      "outputs": [
        {
          "name": "vestDuration",
          "type": "uint32"
        },
        {
          "name": "cliffDuration",
          "type": "uint32"
        },
        {
          "name": "vestIntervalDays",
          "type": "uint32"
        }
      ],
      "payable": false,
      "stateMutability": "view",
      "type": "function"
    },
    {
      "constant": false,
      "inputs": [
        {
          "name": "beneficiary",
          "type": "address"
        },
        {
          "name": "totalAmount",
          "type": "uint256"
        },
        {
          "name": "vestingAmount",
          "type": "uint256"
        },
        {
          "name": "startDay",
          "type": "uint32"
        },
        {
          "name": "duration",
          "type": "uint32"
        },
        {
          "name": "cliffDuration",
          "type": "uint32"
        },
        {
          "name": "interval",
          "type": "uint32"
        },
        {
          "name": "isRevocable",
          "type": "bool"
        }
      ],
      "name": "grantVestingTokens",
      "outputs": [
        {
          "name": "ok",
          "type": "bool"
        }
      ],
      "payable": false,
      "stateMutability": "nonpayable",
      "type": "function"
    },
    {
      "constant": false,
      "inputs": [
        {
          "name": "beneficiary",
          "type": "address"
        },
        {
          "name": "totalAmount",
          "type": "uint256"
        },
        {
          "name": "vestingAmount",
          "type": "uint256"
        },
        {
          "name": "startDay",
          "type": "uint32"
        },
        {
          "name": "duration",
          "type": "uint32"
        },
        {
          "name": "cliffDuration",
          "type": "uint32"
        },
        {
          "name": "interval",
          "type": "uint32"
        },
        {
          "name": "isRevocable",
          "type": "bool"
        }
      ],
      "name": "safeGrantVestingTokens",
      "outputs": [
        {
          "name": "ok",
          "type": "bool"
        }
      ],
      "payable": false,
      "stateMutability": "nonpayable",
      "type": "function"
    },
    {
      "constant": true,
      "inputs": [],
      "name": "today",
      "outputs": [
        {
          "name": "dayNumber",
          "type": "uint32"
        }
      ],
      "payable": false,
      "stateMutability": "view",
      "type": "function"
    },
    {
      "constant": true,
      "inputs": [
        {
          "name": "grantHolder",
          "type": "address"
        },
        {
          "name": "onDayOrToday",
          "type": "uint32"
        }
      ],
      "name": "vestingForAccountAsOf",
      "outputs": [
        {
          "name": "amountVested",
          "type": "uint256"
        },
        {
          "name": "amountNotVested",
          "type": "uint256"
        },
        {
          "name": "amountOfGrant",
          "type": "uint256"
        },
        {
          "name": "vestStartDay",
          "type": "uint32"
        },
        {
          "name": "vestDuration",
          "type": "uint32"
        },
        {
          "name": "cliffDuration",
          "type": "uint32"
        },
        {
          "name": "vestIntervalDays",
          "type": "uint32"
        },
        {
          "name": "isActive",
          "type": "bool"
        },
        {
          "name": "wasRevoked",
          "type": "bool"
        }
      ],
      "payable": false,
      "stateMutability": "view",
      "type": "function"
    },
    {
      "constant": true,
      "inputs": [
        {
          "name": "onDayOrToday",
          "type": "uint32"
        }
      ],
      "name": "vestingAsOf",
      "outputs": [
        {
          "name": "amountVested",
          "type": "uint256"
        },
        {
          "name": "amountNotVested",
          "type": "uint256"
        },
        {
          "name": "amountOfGrant",
          "type": "uint256"
        },
        {
          "name": "vestStartDay",
          "type": "uint32"
        },
        {
          "name": "vestDuration",
          "type": "uint32"
        },
        {
          "name": "cliffDuration",
          "type": "uint32"
        },
        {
          "name": "vestIntervalDays",
          "type": "uint32"
        },
        {
          "name": "isActive",
          "type": "bool"
        },
        {
          "name": "wasRevoked",
          "type": "bool"
        }
      ],
      "payable": false,
      "stateMutability": "view",
      "type": "function"
    },
    {
      "constant": false,
      "inputs": [
        {
          "name": "grantHolder",
          "type": "address"
        },
        {
          "name": "onDay",
          "type": "uint32"
        }
      ],
      "name": "revokeGrant",
      "outputs": [
        {
          "name": "ok",
          "type": "bool"
        }
      ],
      "payable": false,
      "stateMutability": "nonpayable",
      "type": "function"
    },
    {
      "constant": false,
      "inputs": [
        {
          "name": "to",
          "type": "address"
        },
        {
          "name": "value",
          "type": "uint256"
        }
      ],
      "name": "transfer",
      "outputs": [
        {
          "name": "ok",
          "type": "bool"
        }
      ],
      "payable": false,
      "stateMutability": "nonpayable",
      "type": "function"
    },
    {
      "constant": false,
      "inputs": [
        {
          "name": "spender",
          "type": "address"
        },
        {
          "name": "value",
          "type": "uint256"
        }
      ],
      "name": "approve",
      "outputs": [
        {
          "name": "ok",
          "type": "bool"
        }
      ],
      "payable": false,
      "stateMutability": "nonpayable",
      "type": "function"
    }
  ],
  "bytecode": "0x608060405260006200001964010000000062000097810204565b60038054600160a060020a031916600160a060020a038316908117909155604051919250906000907f8be0079c531659141344cd1fd0a4f28419497f9722a3daafe3b4186f6b6457e0908290a3506200007a6401000000006200009b810204565b5062000091336000640100000000620000e5810204565b6200028c565b3390565b33600081815260046020526040808220805460ff19166001179055519091907fcd822dc9688e20acea68724a2fbcfe4f3e526d20ecaa37b18fe3047ab377d6a5908390a250600190565b600160a060020a038216620000f957600080fd5b62000114600583640100000000620024056200016282021704565b600160a060020a038216600081815260066020526040808220805460ff1916851515179055517f614c7c37719098320f845a142223983b9adcc4c3f2663971d5b0eb4c661a24e79190a25050565b62000177828264010000000062000209810204565b15620001e457604080517f08c379a000000000000000000000000000000000000000000000000000000000815260206004820152601f60248201527f526f6c65733a206163636f756e7420616c72656164792068617320726f6c6500604482015290519081900360640190fd5b600160a060020a0316600090815260209190915260409020805460ff19166001179055565b6000600160a060020a0382166200026c576040517f08c379a000000000000000000000000000000000000000000000000000000000815260040180806020018281038252602281526020018062002ac96022913960400191505060405180910390fd5b50600160a060020a03166000908152602091909152604090205460ff1690565b61282d806200029c6000396000f3fe608060405234801561001057600080fd5b50600436106101e1576000357c010000000000000000000000000000000000000000000000000000000090048063715018a611610116578063b74e452b116100b4578063d9f226e91161008e578063d9f226e91461068c578063dd62ed3e14610694578063f2fde38b146106c2578063fbc6d1cb146106e8576101e1565b8063b74e452b14610613578063c3c5a54714610634578063d56ad0ba1461065a576101e1565b80638f32d59b116100f05780638f32d59b14610565578063a457c2d71461056d578063a9059cbb14610599578063acc27b98146105c5576101e1565b8063715018a6146104d85780637af023a9146104e05780638da5cb5b14610541576101e1565b8063395093511161018357806342842e0e1161015d57806342842e0e1461042857806344e393cb1461045e5780636d71a9c61461048c57806370a08231146104b2576101e1565b8063395093511461036f57806341d5f6191461039b578063423f6cef146103fc576101e1565b80631bd2cf38116101bf5780631bd2cf381461026657806323b872dd146102985780632455a035146102ce578063332cc9c614610347576101e1565b8063095ea7b3146101e657806318160ddd14610226578063190de9f714610240575b600080fd5b610212600480360360408110156101fc57600080fd5b50600160a060020a038135169060200135610714565b604080519115158252519081900360200190f35b61022e61084b565b60408051918252519081900360200190f35b6102126004803603602081101561025657600080fd5b5035600160a060020a0316610851565b6102126004803603604081101561027c57600080fd5b508035600160a060020a0316906020013563ffffffff1661086a565b610212600480360360608110156102ae57600080fd5b50600160a060020a03813581169160208101359091169060400135610bc5565b6102f1600480360360208110156102e457600080fd5b503563ffffffff16610c52565b60408051998a5260208a01989098528888019690965263ffffffff9485166060890152928416608088015290831660a087015290911660c0850152151560e0840152151561010083015251908190036101200190f35b61036d6004803603602081101561035d57600080fd5b5035600160a060020a0316610c89565b005b6102126004803603604081101561038557600080fd5b50600160a060020a038135169060200135610cdf565b61021260048036036101008110156103b257600080fd5b50600160a060020a038135169060208101359060408101359063ffffffff6060820135811691608081013582169160a082013581169160c08101359091169060e001351515610d3c565b6102126004803603604081101561041257600080fd5b50600160a060020a038135169060200135610e05565b6102126004803603606081101561043e57600080fd5b50600160a060020a03813581169160208101359091169060400135610e68565b61036d6004803603604081101561047457600080fd5b50600160a060020a0381351690602001351515610ecd565b610212600480360360208110156104a257600080fd5b5035600160a060020a0316610f25565b61022e600480360360208110156104c857600080fd5b5035600160a060020a0316610f56565b61036d610f71565b61021260048036036101008110156104f757600080fd5b50600160a060020a038135169060208101359060408101359063ffffffff6060820135811691608081013582169160a082013581169160c08101359091169060e00135151561100b565b610549611107565b60408051600160a060020a039092168252519081900360200190f35b610212611116565b6102126004803603604081101561058357600080fd5b50600160a060020a03813516906020013561113c565b610212600480360360408110156105af57600080fd5b50600160a060020a0381351690602001356111aa565b6105eb600480360360208110156105db57600080fd5b5035600160a060020a0316611296565b6040805163ffffffff9485168152928416602084015292168183015290519081900360600190f35b61061b611357565b6040805163ffffffff9092168252519081900360200190f35b6102126004803603602081101561064a57600080fd5b5035600160a060020a0316611360565b6102f16004803603604081101561067057600080fd5b508035600160a060020a0316906020013563ffffffff1661137e565b6102126114af565b61022e600480360360408110156106aa57600080fd5b50600160a060020a03813581169160200135166114f9565b61036d600480360360208110156106d857600080fd5b5035600160a060020a0316611524565b610212600480360360408110156106fe57600080fd5b50600160a060020a03813516906020013561158b565b6000338261072a8282610725611357565b6115e3565b8161073484610f56565b10610774576040518060400160405280601981526020017f696e73756666696369656e74207665737465642066756e6473000000000000008152506107ab565b6040518060400160405280601281526020017f696e73756666696369656e742066756e647300000000000000000000000000008152505b906108375760405160e560020a62461bcd0281526004018080602001828103825283818151815260200191508051906020019080838360005b838110156107fc5781810151838201526020016107e4565b50505050905090810190601f1680156108295780820380516001836020036101000a031916815260200191505b509250505060405180910390fd5b5061084285856115fa565b95945050505050565b60025490565b600061086460058363ffffffff61160e16565b92915050565b600061087533610851565b6108c9576040805160e560020a62461bcd02815260206004820152600b60248201527f6f6e6c794772616e746f72000000000000000000000000000000000000000000604482015290519081900360640190fd5b600160a060020a0380841660009081526008602090815260408083206002810154909416835260079091528120906108ff611107565b600160a060020a031633600160a060020a0316148061092a57506003830154600160a060020a031633145b61097e576040805160e560020a62461bcd02815260206004820152600b60248201527f6e6f7420616c6c6f776564000000000000000000000000000000000000000000604482015290519081900360640190fd5b825460ff166109d7576040805160e560020a62461bcd02815260206004820152600f60248201527f6e6f20616374697665206772616e740000000000000000000000000000000000604482015290519081900360640190fd5b8154610100900460ff16610a35576040805160e560020a62461bcd02815260206004820152600b60248201527f69727265766f6361626c65000000000000000000000000000000000000000000604482015290519081900360640190fd5b8154835462010000900463ffffffff908116660100000000000090920481169190910181169086161115610ab3576040805160e560020a62461bcd02815260206004820152600960248201527f6e6f206566666563740000000000000000000000000000000000000000000000604482015290519081900360640190fd5b610abb611357565b63ffffffff168563ffffffff161015610b1e576040805160e560020a62461bcd02815260206004820152601d60248201527f63616e6e6f74207265766f6b652076657374656420686f6c64696e6773000000604482015290519081900360640190fd5b610b288686611678565b6003840154909150610b45908790600160a060020a0316836117d4565b6003830154610b5f908790600160a060020a031683610bc5565b50600160a060020a038616600081815260086020526040808220805460ff1961ff0019909116610100171690555163ffffffff881692917f906c0c4c98565a396c542d9102cae7a794e84af6763123e068a1b277333bf4a491a350600195945050505050565b6000610bd28484846118c6565b610c4884610bde611a28565b610c438560405180606001604052806028815260200161270760289139600160a060020a038a16600090815260016020526040812090610c1c611a28565b600160a060020a03168152602081019190915260400160002054919063ffffffff611a2c16565b6117d4565b5060019392505050565b6000806000806000806000806000610c6a338b61137e565b9850985098509850985098509850985098509193959799909294969850565b610c91611116565b610cd3576040805160e560020a62461bcd028152602060048201819052602482015260008051602061272f833981519152604482015290519081900360640190fd5b610cdc81611a89565b50565b6000610d33610cec611a28565b84610c438560016000610cfd611a28565b600160a060020a03908116825260208083019390935260409182016000908120918c16815292529020549063ffffffff611ae416565b50600192915050565b6000610d4733610851565b610d9b576040805160e560020a62461bcd02815260206004820152600b60248201527f6f6e6c794772616e746f72000000000000000000000000000000000000000000604482015290519081900360640190fd5b88610da581611b48565b610de7576040805160e560020a62461bcd028152602060048201526016602482015260008051602061267f833981519152604482015290519081900360640190fd5b610df78a8a8a8a8a8a8a8a61100b565b9a9950505050505050505050565b600082610e1181611b48565b610e53576040805160e560020a62461bcd028152602060048201526016602482015260008051602061267f833981519152604482015290519081900360640190fd5b610e5d84846111aa565b506001949350505050565b600082610e7481611b48565b610eb6576040805160e560020a62461bcd028152602060048201526016602482015260008051602061267f833981519152604482015290519081900360640190fd5b610ec1858585610bc5565b50600195945050505050565b610ed5611116565b610f17576040805160e560020a62461bcd028152602060048201819052602482015260008051602061272f833981519152604482015290519081900360640190fd5b610f218282611b7b565b5050565b6000610f3082610851565b8015610864575050600160a060020a031660009081526006602052604090205460ff1690565b600160a060020a031660009081526020819052604090205490565b610f79611116565b610fbb576040805160e560020a62461bcd028152602060048201819052602482015260008051602061272f833981519152604482015290519081900360640190fd5b6040805160e560020a62461bcd02815260206004820152600960248201527f666f7262696464656e0000000000000000000000000000000000000000000000604482015290519081900360640190fd5b600061101633610851565b61106a576040805160e560020a62461bcd02815260206004820152600b60248201527f6f6e6c794772616e746f72000000000000000000000000000000000000000000604482015290519081900360640190fd5b600160a060020a03891660009081526008602052604090205460ff16156110db576040805160e560020a62461bcd02815260206004820152601460248201527f6772616e7420616c726561647920657869737473000000000000000000000000604482015290519081900360640190fd5b6110e88985878686611bed565b506110f7898989898d33611ea0565b5060019998505050505050505050565b600354600160a060020a031690565b600354600090600160a060020a031661112d611a28565b600160a060020a031614905090565b6000610d33611149611a28565b84610c43856040518060600160405280602581526020016127dd6025913960016000611173611a28565b600160a060020a03908116825260208083019390935260409182016000908120918d1681529252902054919063ffffffff611a2c16565b600033826111bb8282610725611357565b816111c584610f56565b10611205576040518060400160405280601981526020017f696e73756666696369656e74207665737465642066756e64730000000000000081525061123c565b6040518060400160405280601281526020017f696e73756666696369656e742066756e647300000000000000000000000000008152505b9061128b5760405160e560020a62461bcd0281526020600482018181528351602484015283519092839260449091019190850190808383600083156107fc5781810151838201526020016107e4565b5061084285856121c2565b6000806000836112a533610851565b806112b8575033600160a060020a038216145b61130c576040805160e560020a62461bcd02815260206004820152601160248201527f6f6e6c794772616e746f724f7253656c66000000000000000000000000000000604482015290519081900360640190fd5b50505050600160a060020a031660009081526007602052604090205463ffffffff660100000000000082048116926201000083048216926a0100000000000000000000900490911690565b62015180420490565b600160a060020a031660009081526004602052604090205460ff1690565b60008060008060008060008060008a61139633610851565b806113a9575033600160a060020a038216145b6113fd576040805160e560020a62461bcd02815260206004820152601160248201527f6f6e6c794772616e746f724f7253656c66000000000000000000000000000000604482015290519081900360640190fd5b600160a060020a03808d1660009081526008602090815260408083206002810154909416835260079091528120906114358f8f611678565b600184015490915061144d818363ffffffff6121d616565b93549254939d50909b50995063ffffffff6201000080830482169a5066010000000000008404821699508304811697506a0100000000000000000000909204909116945060ff8082169450610100909104169150509295985092959850929598565b33600081815260046020526040808220805460ff19166001179055519091907fcd822dc9688e20acea68724a2fbcfe4f3e526d20ecaa37b18fe3047ab377d6a5908390a250600190565b600160a060020a03918216600090815260016020908152604080832093909416825291909152205490565b61152c611116565b61156e576040805160e560020a62461bcd028152602060048201819052602482015260008051602061272f833981519152604482015290519081900360640190fd5b61157733611a89565b61158081612218565b610cdc816000611b7b565b60008261159781611b48565b6115d9576040805160e560020a62461bcd028152602060048201526016602482015260008051602061267f833981519152604482015290519081900360640190fd5b610e5d8484610714565b60006115ef84836122b7565b909211159392505050565b6000610d33611607611a28565b84846117d4565b6000600160a060020a0382166116585760405160e560020a62461bcd02815260040180806020018281038252602281526020018061274f6022913960400191505060405180910390fd5b50600160a060020a03166000908152602091909152604090205460ff1690565b600160a060020a0380831660009081526008602090815260408083206002810154909416835260079091528120909190826116b2856122e1565b835490915060ff1615806116e3575081548354620100009081900463ffffffff908116919092048216018116908216105b156116f5575050600101549050610864565b8154835462010000900463ffffffff908116660100000000000090920481169190910181169082161061172e5760009350505050610864565b8254825463ffffffff6201000090920482168303916000916a01000000000000000000009004811690819084168161176257fe5b0402905060006117af8560000160069054906101000a900463ffffffff1663ffffffff166117a38463ffffffff1689600101546122fd90919063ffffffff16565b9063ffffffff61235916565b60018701549091506117c7908263ffffffff6121d616565b9650505050505050610864565b600160a060020a03831661181c5760405160e560020a62461bcd0281526004018080602001828103825260248152602001806127966024913960400191505060405180910390fd5b600160a060020a0382166118645760405160e560020a62461bcd02815260040180806020018281038252602281526020018061265d6022913960400191505060405180910390fd5b600160a060020a03808416600081815260016020908152604080832094871680845294825291829020859055815185815291517f8c5be1e5ebec7d5bd14f71427d1e84f3dd0314c0f7b2291e5b200ac8c7c3b9259281900390910190a3505050565b600160a060020a03831661190e5760405160e560020a62461bcd0281526004018080602001828103825260258152602001806127716025913960400191505060405180910390fd5b600160a060020a0382166119565760405160e560020a62461bcd0281526004018080602001828103825260238152602001806126146023913960400191505060405180910390fd5b6119998160405180606001604052806026815260200161269f60269139600160a060020a038616600090815260208190526040902054919063ffffffff611a2c16565b600160a060020a0380851660009081526020819052604080822093909355908416815220546119ce908263ffffffff611ae416565b600160a060020a038084166000818152602081815260409182902094909455805185815290519193928716927fddf252ad1be2c89b69c2b068fc378daa952ba7f163c4a11628f55a4df523b3ef92918290030190a3505050565b3390565b60008184841115611a815760405160e560020a62461bcd0281526020600482018181528351602484015283519092839260449091019190850190808383600083156107fc5781810151838201526020016107e4565b505050900390565b600160a060020a038116611a9c57600080fd5b611aad60058263ffffffff61239b16565b604051600160a060020a038216907f33a8bb468e8361c5c40d643192eb6970b91cb87aa0200f8709f5b805087b905390600090a250565b600082820183811015611b41576040805160e560020a62461bcd02815260206004820152601b60248201527f536166654d6174683a206164646974696f6e206f766572666c6f770000000000604482015290519081900360640190fd5b9392505050565b6000600160a060020a038216331480610864575050600160a060020a031660009081526004602052604090205460ff1690565b600160a060020a038216611b8e57600080fd5b611b9f60058363ffffffff61240516565b600160a060020a038216600081815260066020526040808220805460ff1916851515179055517f614c7c37719098320f845a142223983b9adcc4c3f2663971d5b0eb4c661a24e79190a25050565b6000808463ffffffff16118015611c0c5750610e4463ffffffff851611155b8015611c2357508363ffffffff168563ffffffff16105b8015611c36575060018363ffffffff1610155b611c8a576040805160e560020a62461bcd02815260206004820152601860248201527f696e76616c69642076657374696e67207363686564756c650000000000000000604482015290519081900360640190fd5b8263ffffffff168463ffffffff1681611c9f57fe5b0663ffffffff166000148015611cd057508263ffffffff168563ffffffff1681611cc557fe5b0663ffffffff166000145b611d0e5760405160e560020a62461bcd0281526004018080602001828103825260238152602001806127ba6023913960400191505060405180910390fd5b6040518060a0016040528060011515815260200183151581526020018663ffffffff1681526020018563ffffffff1681526020018463ffffffff168152506007600088600160a060020a0316600160a060020a0316815260200190815260200160002060008201518160000160006101000a81548160ff02191690831515021790555060208201518160000160016101000a81548160ff02191690831515021790555060408201518160000160026101000a81548163ffffffff021916908363ffffffff16021790555060608201518160000160066101000a81548163ffffffff021916908363ffffffff160217905550608082015181600001600a6101000a81548163ffffffff021916908363ffffffff1602179055509050508115158463ffffffff1687600160a060020a03167fb84219eaee5910cc5311a393fbd4287b14bc791973b97f64d4b61b6d8554adc78887604051808363ffffffff1663ffffffff1681526020018263ffffffff1663ffffffff1681526020019250505060405180910390a450600195945050505050565b600160a060020a03861660009081526008602052604081205460ff1615611f11576040805160e560020a62461bcd02815260206004820152601460248201527f6772616e7420616c726561647920657869737473000000000000000000000000604482015290519081900360640190fd5b858511158015611f215750600085115b8015611f355750612acd63ffffffff851610155b8015611f4957506205bd8863ffffffff8516105b611f9d576040805160e560020a62461bcd02815260206004820152601660248201527f696e76616c69642076657374696e6720706172616d7300000000000000000000604482015290519081900360640190fd5b611fa683612489565b611ffa576040805160e560020a62461bcd02815260206004820152601860248201527f6e6f20737563682076657374696e67207363686564756c650000000000000000604482015290519081900360640190fd5b6120058288886118c6565b6040518060c001604052806001151581526020016000151581526020018563ffffffff16815260200186815260200184600160a060020a0316815260200183600160a060020a03168152506008600089600160a060020a0316600160a060020a0316815260200190815260200160002060008201518160000160006101000a81548160ff02191690831515021790555060208201518160000160016101000a81548160ff02191690831515021790555060408201518160000160026101000a81548163ffffffff021916908363ffffffff1602179055506060820151816001015560808201518160020160006101000a815481600160a060020a030219169083600160a060020a0316021790555060a08201518160030160006101000a815481600160a060020a030219169083600160a060020a0316021790555090505081600160a060020a03168588600160a060020a03167fce19dc9f3460f5845c81c7fa52526977d7e7275df4b1d0e40ea09653252e0c758787604051808363ffffffff1663ffffffff16815260200182600160a060020a0316600160a060020a031681526020019250505060405180910390a45060019695505050505050565b6000610d336121cf611a28565b84846118c6565b6000611b4183836040518060400160405280601e81526020017f536166654d6174683a207375627472616374696f6e206f766572666c6f770000815250611a2c565b8061222281611b48565b612264576040805160e560020a62461bcd028152602060048201526016602482015260008051602061267f833981519152604482015290519081900360640190fd5b61226c611116565b6122ae576040805160e560020a62461bcd028152602060048201819052602482015260008051602061272f833981519152604482015290519081900360640190fd5b610f21826124a7565b6000806122c384610f56565b905060006108426122d48686611678565b839063ffffffff6121d616565b600063ffffffff8216156122f55781610864565b610864611357565b60008261230c57506000610864565b8282028284828161231957fe5b0414611b415760405160e560020a62461bcd0281526004018080602001828103825260218152602001806126e66021913960400191505060405180910390fd5b6000611b4183836040518060400160405280601a81526020017f536166654d6174683a206469766973696f6e206279207a65726f0000000000008152506124fa565b6123a5828261160e565b6123e35760405160e560020a62461bcd0281526004018080602001828103825260218152602001806126c56021913960400191505060405180910390fd5b600160a060020a0316600090815260209190915260409020805460ff19169055565b61240f828261160e565b15612464576040805160e560020a62461bcd02815260206004820152601f60248201527f526f6c65733a206163636f756e7420616c72656164792068617320726f6c6500604482015290519081900360640190fd5b600160a060020a0316600090815260209190915260409020805460ff19166001179055565b600160a060020a031660009081526007602052604090205460ff1690565b6124af611116565b6124f1576040805160e560020a62461bcd028152602060048201819052602482015260008051602061272f833981519152604482015290519081900360640190fd5b610cdc81612562565b6000818361254c5760405160e560020a62461bcd0281526020600482018181528351602484015283519092839260449091019190850190808383600083156107fc5781810151838201526020016107e4565b50600083858161255857fe5b0495945050505050565b600160a060020a0381166125aa5760405160e560020a62461bcd0281526004018080602001828103825260268152602001806126376026913960400191505060405180910390fd5b600354604051600160a060020a038084169216907f8be0079c531659141344cd1fd0a4f28419497f9722a3daafe3b4186f6b6457e090600090a36003805473ffffffffffffffffffffffffffffffffffffffff1916600160a060020a039290921691909117905556fe45524332303a207472616e7366657220746f20746865207a65726f20616464726573734f776e61626c653a206e6577206f776e657220697320746865207a65726f206164647265737345524332303a20617070726f766520746f20746865207a65726f20616464726573736163636f756e74206e6f7420726567697374657265640000000000000000000045524332303a207472616e7366657220616d6f756e7420657863656564732062616c616e6365526f6c65733a206163636f756e7420646f6573206e6f74206861766520726f6c65536166654d6174683a206d756c7469706c69636174696f6e206f766572666c6f7745524332303a207472616e7366657220616d6f756e74206578636565647320616c6c6f77616e63654f776e61626c653a2063616c6c6572206973206e6f7420746865206f776e6572526f6c65733a206163636f756e7420697320746865207a65726f206164647265737345524332303a207472616e736665722066726f6d20746865207a65726f206164647265737345524332303a20617070726f76652066726f6d20746865207a65726f2061646472657373696e76616c696420636c6966662f6475726174696f6e20666f7220696e74657276616c45524332303a2064656372656173656420616c6c6f77616e63652062656c6f77207a65726fa165627a7a72305820488866480df78fe1a1c9e57100b83ce986751b6e181d31da0722ce18133924480029526f6c65733a206163636f756e7420697320746865207a65726f2061646472657373",
  "source": "pragma solidity ^0.5.7;\r\n\r\nimport \"@openzeppelin/contracts/token/ERC20/ERC20Pausable.sol\";\r\nimport \"./VerifiedAccount.sol\";\r\nimport \"./GrantorRole.sol\";\r\nimport \"./IERC20Vestable.sol\";\r\n\r\ncontract ERC20Vestable is ERC20, VerifiedAccount, GrantorRole, IERC20Vestable {\r\n    using SafeMath for uint256;\r\n\r\n    uint32 private constant THOUSAND_YEARS_DAYS = 365243;\r\n    uint32 private constant TEN_YEARS_DAYS = THOUSAND_YEARS_DAYS / 100;\r\n    uint32 private constant SECONDS_PER_DAY = 24 * 60 * 60;\r\n    uint32 private constant JAN_1_2000_SECONDS = 946684800;\r\n    uint32 private constant JAN_1_2000_DAYS = JAN_1_2000_SECONDS / SECONDS_PER_DAY;\r\n    uint32 private constant JAN_1_3000_DAYS = JAN_1_2000_DAYS + THOUSAND_YEARS_DAYS;\r\n\r\n    struct vestingSchedule {\r\n        bool isValid;\r\n        bool isRevocable;\r\n        uint32 cliffDuration;\r\n        uint32 duration;\r\n        uint32 interval;\r\n    }\r\n\r\n    struct tokenGrant {\r\n        bool isActive;\r\n        bool wasRevoked;\r\n        uint32 startDay;\r\n        uint256 amount;\r\n        address vestingLocation;\r\n        address grantor;\r\n    }\r\n\r\n    mapping(address => vestingSchedule) private _vestingSchedules;\r\n    mapping(address => tokenGrant) private _tokenGrants;\r\n\r\n    function _setVestingSchedule(\r\n        address vestingLocation,\r\n        uint32 cliffDuration, uint32 duration, uint32 interval,\r\n        bool isRevocable) internal returns (bool ok) {\r\n\r\n        require(\r\n            duration > 0 && duration <= TEN_YEARS_DAYS\r\n            && cliffDuration < duration\r\n            && interval >= 1,\r\n            \"invalid vesting schedule\"\r\n        );\r\n\r\n        require(\r\n            duration % interval == 0 && cliffDuration % interval == 0,\r\n            \"invalid cliff/duration for interval\"\r\n        );\r\n\r\n        _vestingSchedules[vestingLocation] = vestingSchedule(\r\n            true/*isValid*/,\r\n            isRevocable,\r\n            cliffDuration, duration, interval\r\n        );\r\n\r\n        emit VestingScheduleCreated(\r\n            vestingLocation,\r\n            cliffDuration, duration, interval,\r\n            isRevocable);\r\n        return true;\r\n    }\r\n\r\n    function _hasVestingSchedule(address account) internal view returns (bool ok) {\r\n        return _vestingSchedules[account].isValid;\r\n    }\r\n\r\n    function getIntrinsicVestingSchedule(address grantHolder)\r\n    public\r\n    view\r\n    onlyGrantorOrSelf(grantHolder)\r\n    returns (\r\n        uint32 vestDuration,\r\n        uint32 cliffDuration,\r\n        uint32 vestIntervalDays\r\n    )\r\n    {\r\n        return (\r\n        _vestingSchedules[grantHolder].duration,\r\n        _vestingSchedules[grantHolder].cliffDuration,\r\n        _vestingSchedules[grantHolder].interval\r\n        );\r\n    }\r\n\r\n    function _grantVestingTokens(\r\n        address beneficiary,\r\n        uint256 totalAmount,\r\n        uint256 vestingAmount,\r\n        uint32 startDay,\r\n        address vestingLocation,\r\n        address grantor\r\n    )\r\n    internal returns (bool ok)\r\n    {\r\n        require(!_tokenGrants[beneficiary].isActive, \"grant already exists\");\r\n        require(\r\n            vestingAmount <= totalAmount && vestingAmount > 0\r\n            && startDay >= JAN_1_2000_DAYS && startDay < JAN_1_3000_DAYS,\r\n            \"invalid vesting params\");\r\n        require(_hasVestingSchedule(vestingLocation), \"no such vesting schedule\");\r\n        _transfer(grantor, beneficiary, totalAmount);\r\n        _tokenGrants[beneficiary] = tokenGrant(\r\n            true/*isActive*/,\r\n            false/*wasRevoked*/,\r\n            startDay,\r\n            vestingAmount,\r\n            vestingLocation,\r\n            grantor\r\n        );\r\n\r\n        emit VestingTokensGranted(beneficiary, vestingAmount, startDay, vestingLocation, grantor);\r\n        return true;\r\n    }\r\n    \r\n    function grantVestingTokens(\r\n        address beneficiary,\r\n        uint256 totalAmount,\r\n        uint256 vestingAmount,\r\n        uint32 startDay,\r\n        uint32 duration,\r\n        uint32 cliffDuration,\r\n        uint32 interval,\r\n        bool isRevocable\r\n    ) public onlyGrantor returns (bool ok) {\r\n        require(!_tokenGrants[beneficiary].isActive, \"grant already exists\");\r\n        _setVestingSchedule(beneficiary, cliffDuration, duration, interval, isRevocable);\r\n        _grantVestingTokens(beneficiary, totalAmount, vestingAmount, startDay, beneficiary, msg.sender);\r\n\r\n        return true;\r\n    }\r\n\r\n    function safeGrantVestingTokens(\r\n        address beneficiary, uint256 totalAmount, uint256 vestingAmount,\r\n        uint32 startDay, uint32 duration, uint32 cliffDuration, uint32 interval,\r\n        bool isRevocable) public onlyGrantor onlyExistingAccount(beneficiary) returns (bool ok) {\r\n\r\n        return grantVestingTokens(\r\n            beneficiary, totalAmount, vestingAmount,\r\n            startDay, duration, cliffDuration, interval,\r\n            isRevocable);\r\n    }\r\n\r\n    function today() public view returns (uint32 dayNumber) {\r\n        return uint32(block.timestamp / SECONDS_PER_DAY);\r\n    }\r\n\r\n    function _effectiveDay(uint32 onDayOrToday) internal view returns (uint32 dayNumber) {\r\n        return onDayOrToday == 0 ? today() : onDayOrToday;\r\n    }\r\n\r\n    function _getNotVestedAmount(address grantHolder, uint32 onDayOrToday) internal view returns (uint256 amountNotVested) {\r\n        tokenGrant storage grant = _tokenGrants[grantHolder];\r\n        vestingSchedule storage vesting = _vestingSchedules[grant.vestingLocation];\r\n        uint32 onDay = _effectiveDay(onDayOrToday);\r\n\r\n        if (!grant.isActive || onDay < grant.startDay + vesting.cliffDuration)\r\n        {\r\n            return grant.amount;\r\n        }\r\n        else if (onDay >= grant.startDay + vesting.duration)\r\n        {\r\n            return uint256(0);\r\n        }\r\n        else\r\n        {\r\n            uint32 daysVested = onDay - grant.startDay;\r\n            uint32 effectiveDaysVested = (daysVested / vesting.interval) * vesting.interval;\r\n            uint256 vested = grant.amount.mul(effectiveDaysVested).div(vesting.duration);\r\n            return grant.amount.sub(vested);\r\n        }\r\n    }\r\n\r\n    function _getAvailableAmount(address grantHolder, uint32 onDay) internal view returns (uint256 amountAvailable) {\r\n        uint256 totalTokens = balanceOf(grantHolder);\r\n        uint256 vested = totalTokens.sub(_getNotVestedAmount(grantHolder, onDay));\r\n        return vested;\r\n    }\r\n\r\n    function vestingForAccountAsOf(\r\n        address grantHolder,\r\n        uint32 onDayOrToday\r\n    )\r\n    public\r\n    view\r\n    onlyGrantorOrSelf(grantHolder)\r\n    returns (\r\n        uint256 amountVested,\r\n        uint256 amountNotVested,\r\n        uint256 amountOfGrant,\r\n        uint32 vestStartDay,\r\n        uint32 vestDuration,\r\n        uint32 cliffDuration,\r\n        uint32 vestIntervalDays,\r\n        bool isActive,\r\n        bool wasRevoked\r\n    )\r\n    {\r\n        tokenGrant storage grant = _tokenGrants[grantHolder];\r\n        vestingSchedule storage vesting = _vestingSchedules[grant.vestingLocation];\r\n        uint256 notVestedAmount = _getNotVestedAmount(grantHolder, onDayOrToday);\r\n        uint256 grantAmount = grant.amount;\r\n\r\n        return (\r\n        grantAmount.sub(notVestedAmount),\r\n        notVestedAmount,\r\n        grantAmount,\r\n        grant.startDay,\r\n        vesting.duration,\r\n        vesting.cliffDuration,\r\n        vesting.interval,\r\n        grant.isActive,\r\n        grant.wasRevoked\r\n        );\r\n    }\r\n\r\n    function vestingAsOf(uint32 onDayOrToday) public view returns (\r\n        uint256 amountVested,\r\n        uint256 amountNotVested,\r\n        uint256 amountOfGrant,\r\n        uint32 vestStartDay,\r\n        uint32 vestDuration,\r\n        uint32 cliffDuration,\r\n        uint32 vestIntervalDays,\r\n        bool isActive,\r\n        bool wasRevoked\r\n    )\r\n    {\r\n        return vestingForAccountAsOf(msg.sender, onDayOrToday);\r\n    }\r\n\r\n    function _fundsAreAvailableOn(address account, uint256 amount, uint32 onDay) internal view returns (bool ok) {\r\n        return (amount <= _getAvailableAmount(account, onDay));\r\n    }\r\n\r\n    modifier onlyIfFundsAvailableNow(address account, uint256 amount) {\r\n        require(_fundsAreAvailableOn(account, amount, today()),\r\n            balanceOf(account) < amount ? \"insufficient funds\" : \"insufficient vested funds\");\r\n        _;\r\n    }\r\n\r\n    function revokeGrant(address grantHolder, uint32 onDay) public onlyGrantor returns (bool ok) {\r\n        tokenGrant storage grant = _tokenGrants[grantHolder];\r\n        vestingSchedule storage vesting = _vestingSchedules[grant.vestingLocation];\r\n        uint256 notVestedAmount;\r\n\r\n        require(msg.sender == owner() || msg.sender == grant.grantor, \"not allowed\");\r\n        require(grant.isActive, \"no active grant\");\r\n        require(vesting.isRevocable, \"irrevocable\");\r\n        require(onDay <= grant.startDay + vesting.duration, \"no effect\");\r\n        require(onDay >= today(), \"cannot revoke vested holdings\");\r\n\r\n        notVestedAmount = _getNotVestedAmount(grantHolder, onDay);\r\n        _approve(grantHolder, grant.grantor, notVestedAmount);\r\n        transferFrom(grantHolder, grant.grantor, notVestedAmount);\r\n        _tokenGrants[grantHolder].wasRevoked = true;\r\n        _tokenGrants[grantHolder].isActive = false;\r\n\r\n        emit GrantRevoked(grantHolder, onDay);\r\n\r\n        return true;\r\n    }\r\n\r\n    function transfer(address to, uint256 value) public onlyIfFundsAvailableNow(msg.sender, value) returns (bool ok) {\r\n        return super.transfer(to, value);\r\n    }\r\n\r\n    function approve(address spender, uint256 value) public onlyIfFundsAvailableNow(msg.sender, value) returns (bool ok) {\r\n        return super.approve(spender, value);\r\n    }\r\n}\r\n",
  "sourcePath": "/Volumes/BigDump/Development/FANVestingToken/contracts/ERC20Vestable.sol",
  "compiler": {
    "name": "solc",
    "version": "0.5.7+commit.6da8b019.Emscripten.clang"
  },
  "schemaVersion": "3.4.8",
  "updatedAt": "2022-08-19T20:08:09.157Z",
  "devdoc": {
    "methods": {
      "allowance(address,address)": {
        "details": "See {IERC20-allowance}."
      },
      "balanceOf(address)": {
        "details": "See {IERC20-balanceOf}."
      },
      "decreaseAllowance(address,uint256)": {
        "details": "Atomically decreases the allowance granted to `spender` by the caller.     * This is an alternative to {approve} that can be used as a mitigation for problems described in {IERC20-approve}.     * Emits an {Approval} event indicating the updated allowance.     * Requirements:     * - `spender` cannot be the zero address. - `spender` must have allowance for the caller of at least `subtractedValue`."
      },
      "increaseAllowance(address,uint256)": {
        "details": "Atomically increases the allowance granted to `spender` by the caller.     * This is an alternative to {approve} that can be used as a mitigation for problems described in {IERC20-approve}.     * Emits an {Approval} event indicating the updated allowance.     * Requirements:     * - `spender` cannot be the zero address."
      },
      "isOwner()": {
        "details": "Returns true if the caller is the current owner."
      },
      "owner()": {
        "details": "Returns the address of the current owner."
      },
      "totalSupply()": {
        "details": "See {IERC20-totalSupply}."
      },
      "transferFrom(address,address,uint256)": {
        "details": "See {IERC20-transferFrom}.     * Emits an {Approval} event indicating the updated allowance. This is not required by the EIP. See the note at the beginning of {ERC20};     * Requirements: - `sender` and `recipient` cannot be the zero address. - `sender` must have a balance of at least `amount`. - the caller must have allowance for `sender`'s tokens of at least `amount`."
      }
    }
  },
  "userdoc": {
    "methods": {}
  }
}