{
  "contractName": "FANToken",
  "abi": [
    {
      "constant": true,
      "inputs": [],
      "name": "name",
      "outputs": [
        {
          "name": "",
          "type": "string"
        }
      ],
      "payable": false,
      "stateMutability": "view",
      "type": "function"
    },
    {
      "constant": false,
      "inputs": [
        {
          "name": "spender",
          "type": "address"
        },
        {
          "name": "value",
          "type": "uint256"
        }
      ],
      "name": "approve",
      "outputs": [
        {
          "name": "ok",
          "type": "bool"
        }
      ],
      "payable": false,
      "stateMutability": "nonpayable",
      "type": "function"
    },
    {
      "constant": true,
      "inputs": [],
      "name": "totalSupply",
      "outputs": [
        {
          "name": "",
          "type": "uint256"
        }
      ],
      "payable": false,
      "stateMutability": "view",
      "type": "function"
    },
    {
      "constant": true,
      "inputs": [
        {
          "name": "account",
          "type": "address"
        }
      ],
      "name": "isGrantor",
      "outputs": [
        {
          "name": "",
          "type": "bool"
        }
      ],
      "payable": false,
      "stateMutability": "view",
      "type": "function"
    },
    {
      "constant": false,
      "inputs": [
        {
          "name": "grantHolder",
          "type": "address"
        },
        {
          "name": "onDay",
          "type": "uint32"
        }
      ],
      "name": "revokeGrant",
      "outputs": [
        {
          "name": "ok",
          "type": "bool"
        }
      ],
      "payable": false,
      "stateMutability": "nonpayable",
      "type": "function"
    },
    {
      "constant": false,
      "inputs": [
        {
          "name": "from",
          "type": "address"
        },
        {
          "name": "to",
          "type": "address"
        },
        {
          "name": "value",
          "type": "uint256"
        }
      ],
      "name": "transferFrom",
      "outputs": [
        {
          "name": "",
          "type": "bool"
        }
      ],
      "payable": false,
      "stateMutability": "nonpayable",
      "type": "function"
    },
    {
      "constant": true,
      "inputs": [
        {
          "name": "onDayOrToday",
          "type": "uint32"
        }
      ],
      "name": "vestingAsOf",
      "outputs": [
        {
          "name": "amountVested",
          "type": "uint256"
        },
        {
          "name": "amountNotVested",
          "type": "uint256"
        },
        {
          "name": "amountOfGrant",
          "type": "uint256"
        },
        {
          "name": "vestStartDay",
          "type": "uint32"
        },
        {
          "name": "vestDuration",
          "type": "uint32"
        },
        {
          "name": "cliffDuration",
          "type": "uint32"
        },
        {
          "name": "vestIntervalDays",
          "type": "uint32"
        },
        {
          "name": "isActive",
          "type": "bool"
        },
        {
          "name": "wasRevoked",
          "type": "bool"
        }
      ],
      "payable": false,
      "stateMutability": "view",
      "type": "function"
    },
    {
      "constant": true,
      "inputs": [],
      "name": "decimals",
      "outputs": [
        {
          "name": "",
          "type": "uint8"
        }
      ],
      "payable": false,
      "stateMutability": "view",
      "type": "function"
    },
    {
      "constant": true,
      "inputs": [],
      "name": "whereAmI",
      "outputs": [
        {
          "name": "yourAddress",
          "type": "address"
        }
      ],
      "payable": false,
      "stateMutability": "view",
      "type": "function"
    },
    {
      "constant": false,
      "inputs": [
        {
          "name": "account",
          "type": "address"
        }
      ],
      "name": "removeGrantor",
      "outputs": [],
      "payable": false,
      "stateMutability": "nonpayable",
      "type": "function"
    },
    {
      "constant": false,
      "inputs": [
        {
          "name": "spender",
          "type": "address"
        },
        {
          "name": "addedValue",
          "type": "uint256"
        }
      ],
      "name": "increaseAllowance",
      "outputs": [
        {
          "name": "",
          "type": "bool"
        }
      ],
      "payable": false,
      "stateMutability": "nonpayable",
      "type": "function"
    },
    {
      "constant": false,
      "inputs": [
        {
          "name": "beneficiary",
          "type": "address"
        },
        {
          "name": "totalAmount",
          "type": "uint256"
        },
        {
          "name": "vestingAmount",
          "type": "uint256"
        },
        {
          "name": "startDay",
          "type": "uint32"
        }
      ],
      "name": "safeGrantUniformVestingTokens",
      "outputs": [
        {
          "name": "ok",
          "type": "bool"
        }
      ],
      "payable": false,
      "stateMutability": "nonpayable",
      "type": "function"
    },
    {
      "constant": false,
      "inputs": [],
      "name": "unpause",
      "outputs": [],
      "payable": false,
      "stateMutability": "nonpayable",
      "type": "function"
    },
    {
      "constant": false,
      "inputs": [
        {
          "name": "beneficiary",
          "type": "address"
        },
        {
          "name": "totalAmount",
          "type": "uint256"
        },
        {
          "name": "vestingAmount",
          "type": "uint256"
        },
        {
          "name": "startDay",
          "type": "uint32"
        },
        {
          "name": "duration",
          "type": "uint32"
        },
        {
          "name": "cliffDuration",
          "type": "uint32"
        },
        {
          "name": "interval",
          "type": "uint32"
        },
        {
          "name": "isRevocable",
          "type": "bool"
        }
      ],
      "name": "safeGrantVestingTokens",
      "outputs": [
        {
          "name": "ok",
          "type": "bool"
        }
      ],
      "payable": false,
      "stateMutability": "nonpayable",
      "type": "function"
    },
    {
      "constant": false,
      "inputs": [
        {
          "name": "to",
          "type": "address"
        },
        {
          "name": "value",
          "type": "uint256"
        }
      ],
      "name": "safeTransfer",
      "outputs": [
        {
          "name": "ok",
          "type": "bool"
        }
      ],
      "payable": false,
      "stateMutability": "nonpayable",
      "type": "function"
    },
    {
      "constant": false,
      "inputs": [
        {
          "name": "from",
          "type": "address"
        },
        {
          "name": "to",
          "type": "address"
        },
        {
          "name": "value",
          "type": "uint256"
        }
      ],
      "name": "safeTransferFrom",
      "outputs": [
        {
          "name": "ok",
          "type": "bool"
        }
      ],
      "payable": false,
      "stateMutability": "nonpayable",
      "type": "function"
    },
    {
      "constant": false,
      "inputs": [
        {
          "name": "account",
          "type": "address"
        },
        {
          "name": "isUniformGrantor",
          "type": "bool"
        }
      ],
      "name": "addGrantor",
      "outputs": [],
      "payable": false,
      "stateMutability": "nonpayable",
      "type": "function"
    },
    {
      "constant": true,
      "inputs": [
        {
          "name": "account",
          "type": "address"
        }
      ],
      "name": "isPauser",
      "outputs": [
        {
          "name": "",
          "type": "bool"
        }
      ],
      "payable": false,
      "stateMutability": "view",
      "type": "function"
    },
    {
      "constant": true,
      "inputs": [],
      "name": "paused",
      "outputs": [
        {
          "name": "",
          "type": "bool"
        }
      ],
      "payable": false,
      "stateMutability": "view",
      "type": "function"
    },
    {
      "constant": false,
      "inputs": [
        {
          "name": "grantor",
          "type": "address"
        },
        {
          "name": "duration",
          "type": "uint32"
        },
        {
          "name": "cliffDuration",
          "type": "uint32"
        },
        {
          "name": "interval",
          "type": "uint32"
        },
        {
          "name": "isRevocable",
          "type": "bool"
        }
      ],
      "name": "setGrantorVestingSchedule",
      "outputs": [
        {
          "name": "ok",
          "type": "bool"
        }
      ],
      "payable": false,
      "stateMutability": "nonpayable",
      "type": "function"
    },
    {
      "constant": true,
      "inputs": [
        {
          "name": "account",
          "type": "address"
        }
      ],
      "name": "isUniformGrantor",
      "outputs": [
        {
          "name": "",
          "type": "bool"
        }
      ],
      "payable": false,
      "stateMutability": "view",
      "type": "function"
    },
    {
      "constant": false,
      "inputs": [],
      "name": "renouncePauser",
      "outputs": [],
      "payable": false,
      "stateMutability": "nonpayable",
      "type": "function"
    },
    {
      "constant": true,
      "inputs": [
        {
          "name": "account",
          "type": "address"
        }
      ],
      "name": "balanceOf",
      "outputs": [
        {
          "name": "",
          "type": "uint256"
        }
      ],
      "payable": false,
      "stateMutability": "view",
      "type": "function"
    },
    {
      "constant": false,
      "inputs": [],
      "name": "renounceOwnership",
      "outputs": [],
      "payable": false,
      "stateMutability": "nonpayable",
      "type": "function"
    },
    {
      "constant": false,
      "inputs": [
        {
          "name": "account",
          "type": "address"
        },
        {
          "name": "amount",
          "type": "uint256"
        }
      ],
      "name": "burnFrom",
      "outputs": [],
      "payable": false,
      "stateMutability": "nonpayable",
      "type": "function"
    },
    {
      "constant": false,
      "inputs": [
        {
          "name": "beneficiary",
          "type": "address"
        },
        {
          "name": "totalAmount",
          "type": "uint256"
        },
        {
          "name": "vestingAmount",
          "type": "uint256"
        },
        {
          "name": "startDay",
          "type": "uint32"
        },
        {
          "name": "duration",
          "type": "uint32"
        },
        {
          "name": "cliffDuration",
          "type": "uint32"
        },
        {
          "name": "interval",
          "type": "uint32"
        },
        {
          "name": "isRevocable",
          "type": "bool"
        }
      ],
      "name": "grantVestingTokens",
      "outputs": [
        {
          "name": "ok",
          "type": "bool"
        }
      ],
      "payable": false,
      "stateMutability": "nonpayable",
      "type": "function"
    },
    {
      "constant": false,
      "inputs": [
        {
          "name": "account",
          "type": "address"
        }
      ],
      "name": "addPauser",
      "outputs": [],
      "payable": false,
      "stateMutability": "nonpayable",
      "type": "function"
    },
    {
      "constant": false,
      "inputs": [
        {
          "name": "shortName",
          "type": "string"
        }
      ],
      "name": "iAm",
      "outputs": [],
      "payable": false,
      "stateMutability": "nonpayable",
      "type": "function"
    },
    {
      "constant": false,
      "inputs": [],
      "name": "pause",
      "outputs": [],
      "payable": false,
      "stateMutability": "nonpayable",
      "type": "function"
    },
    {
      "constant": true,
      "inputs": [],
      "name": "owner",
      "outputs": [
        {
          "name": "",
          "type": "address"
        }
      ],
      "payable": false,
      "stateMutability": "view",
      "type": "function"
    },
    {
      "constant": true,
      "inputs": [],
      "name": "isOwner",
      "outputs": [
        {
          "name": "",
          "type": "bool"
        }
      ],
      "payable": false,
      "stateMutability": "view",
      "type": "function"
    },
    {
      "constant": true,
      "inputs": [],
      "name": "symbol",
      "outputs": [
        {
          "name": "",
          "type": "string"
        }
      ],
      "payable": false,
      "stateMutability": "view",
      "type": "function"
    },
    {
      "constant": false,
      "inputs": [
        {
          "name": "grantor",
          "type": "address"
        },
        {
          "name": "minStartDay",
          "type": "uint32"
        },
        {
          "name": "maxStartDay",
          "type": "uint32"
        },
        {
          "name": "expirationDay",
          "type": "uint32"
        }
      ],
      "name": "setRestrictions",
      "outputs": [
        {
          "name": "ok",
          "type": "bool"
        }
      ],
      "payable": false,
      "stateMutability": "nonpayable",
      "type": "function"
    },
    {
      "constant": false,
      "inputs": [
        {
          "name": "spender",
          "type": "address"
        },
        {
          "name": "subtractedValue",
          "type": "uint256"
        }
      ],
      "name": "decreaseAllowance",
      "outputs": [
        {
          "name": "",
          "type": "bool"
        }
      ],
      "payable": false,
      "stateMutability": "nonpayable",
      "type": "function"
    },
    {
      "constant": false,
      "inputs": [
        {
          "name": "to",
          "type": "address"
        },
        {
          "name": "value",
          "type": "uint256"
        }
      ],
      "name": "transfer",
      "outputs": [
        {
          "name": "ok",
          "type": "bool"
        }
      ],
      "payable": false,
      "stateMutability": "nonpayable",
      "type": "function"
    },
    {
      "constant": true,
      "inputs": [
        {
          "name": "grantHolder",
          "type": "address"
        }
      ],
      "name": "getIntrinsicVestingSchedule",
      "outputs": [
        {
          "name": "vestDuration",
          "type": "uint32"
        },
        {
          "name": "cliffDuration",
          "type": "uint32"
        },
        {
          "name": "vestIntervalDays",
          "type": "uint32"
        }
      ],
      "payable": false,
      "stateMutability": "view",
      "type": "function"
    },
    {
      "constant": true,
      "inputs": [],
      "name": "today",
      "outputs": [
        {
          "name": "dayNumber",
          "type": "uint32"
        }
      ],
      "payable": false,
      "stateMutability": "view",
      "type": "function"
    },
    {
      "constant": true,
      "inputs": [
        {
          "name": "account",
          "type": "address"
        }
      ],
      "name": "isRegistered",
      "outputs": [
        {
          "name": "ok",
          "type": "bool"
        }
      ],
      "payable": false,
      "stateMutability": "view",
      "type": "function"
    },
    {
      "constant": true,
      "inputs": [
        {
          "name": "grantHolder",
          "type": "address"
        },
        {
          "name": "onDayOrToday",
          "type": "uint32"
        }
      ],
      "name": "vestingForAccountAsOf",
      "outputs": [
        {
          "name": "amountVested",
          "type": "uint256"
        },
        {
          "name": "amountNotVested",
          "type": "uint256"
        },
        {
          "name": "amountOfGrant",
          "type": "uint256"
        },
        {
          "name": "vestStartDay",
          "type": "uint32"
        },
        {
          "name": "vestDuration",
          "type": "uint32"
        },
        {
          "name": "cliffDuration",
          "type": "uint32"
        },
        {
          "name": "vestIntervalDays",
          "type": "uint32"
        },
        {
          "name": "isActive",
          "type": "bool"
        },
        {
          "name": "wasRevoked",
          "type": "bool"
        }
      ],
      "payable": false,
      "stateMutability": "view",
      "type": "function"
    },
    {
      "constant": false,
      "inputs": [],
      "name": "registerAccount",
      "outputs": [
        {
          "name": "ok",
          "type": "bool"
        }
      ],
      "payable": false,
      "stateMutability": "nonpayable",
      "type": "function"
    },
    {
      "constant": true,
      "inputs": [],
      "name": "whoAmI",
      "outputs": [
        {
          "name": "yourName",
          "type": "string"
        }
      ],
      "payable": false,
      "stateMutability": "view",
      "type": "function"
    },
    {
      "constant": true,
      "inputs": [
        {
          "name": "owner",
          "type": "address"
        },
        {
          "name": "spender",
          "type": "address"
        }
      ],
      "name": "allowance",
      "outputs": [
        {
          "name": "",
          "type": "uint256"
        }
      ],
      "payable": false,
      "stateMutability": "view",
      "type": "function"
    },
    {
      "constant": false,
      "inputs": [
        {
          "name": "newOwner",
          "type": "address"
        }
      ],
      "name": "transferOwnership",
      "outputs": [],
      "payable": false,
      "stateMutability": "nonpayable",
      "type": "function"
    },
    {
      "constant": false,
      "inputs": [
        {
          "name": "spender",
          "type": "address"
        },
        {
          "name": "value",
          "type": "uint256"
        }
      ],
      "name": "safeApprove",
      "outputs": [
        {
          "name": "ok",
          "type": "bool"
        }
      ],
      "payable": false,
      "stateMutability": "nonpayable",
      "type": "function"
    },
    {
      "constant": false,
      "inputs": [
        {
          "name": "beneficiary",
          "type": "address"
        },
        {
          "name": "totalAmount",
          "type": "uint256"
        },
        {
          "name": "vestingAmount",
          "type": "uint256"
        },
        {
          "name": "startDay",
          "type": "uint32"
        }
      ],
      "name": "grantUniformVestingTokens",
      "outputs": [
        {
          "name": "ok",
          "type": "bool"
        }
      ],
      "payable": false,
      "stateMutability": "nonpayable",
      "type": "function"
    },
    {
      "constant": true,
      "inputs": [],
      "name": "VERSION",
      "outputs": [
        {
          "name": "",
          "type": "uint32"
        }
      ],
      "payable": false,
      "stateMutability": "view",
      "type": "function"
    },
    {
      "inputs": [],
      "payable": false,
      "stateMutability": "nonpayable",
      "type": "constructor"
    },
    {
      "payable": true,
      "stateMutability": "payable",
      "type": "fallback"
    },
    {
      "anonymous": false,
      "inputs": [
        {
          "indexed": true,
          "name": "from",
          "type": "address"
        },
        {
          "indexed": false,
          "name": "value",
          "type": "uint256"
        }
      ],
      "name": "DepositReceived",
      "type": "event"
    },
    {
      "anonymous": false,
      "inputs": [
        {
          "indexed": true,
          "name": "grantor",
          "type": "address"
        },
        {
          "indexed": false,
          "name": "minStartDay",
          "type": "uint32"
        },
        {
          "indexed": false,
          "name": "maxStartDay",
          "type": "uint32"
        },
        {
          "indexed": false,
          "name": "expirationDay",
          "type": "uint32"
        }
      ],
      "name": "GrantorRestrictionsSet",
      "type": "event"
    },
    {
      "anonymous": false,
      "inputs": [
        {
          "indexed": true,
          "name": "vestingLocation",
          "type": "address"
        },
        {
          "indexed": false,
          "name": "cliffDuration",
          "type": "uint32"
        },
        {
          "indexed": true,
          "name": "duration",
          "type": "uint32"
        },
        {
          "indexed": false,
          "name": "interval",
          "type": "uint32"
        },
        {
          "indexed": true,
          "name": "isRevocable",
          "type": "bool"
        }
      ],
      "name": "VestingScheduleCreated",
      "type": "event"
    },
    {
      "anonymous": false,
      "inputs": [
        {
          "indexed": true,
          "name": "beneficiary",
          "type": "address"
        },
        {
          "indexed": true,
          "name": "vestingAmount",
          "type": "uint256"
        },
        {
          "indexed": false,
          "name": "startDay",
          "type": "uint32"
        },
        {
          "indexed": false,
          "name": "vestingLocation",
          "type": "address"
        },
        {
          "indexed": true,
          "name": "grantor",
          "type": "address"
        }
      ],
      "name": "VestingTokensGranted",
      "type": "event"
    },
    {
      "anonymous": false,
      "inputs": [
        {
          "indexed": true,
          "name": "grantHolder",
          "type": "address"
        },
        {
          "indexed": true,
          "name": "onDay",
          "type": "uint32"
        }
      ],
      "name": "GrantRevoked",
      "type": "event"
    },
    {
      "anonymous": false,
      "inputs": [
        {
          "indexed": true,
          "name": "account",
          "type": "address"
        }
      ],
      "name": "GrantorAdded",
      "type": "event"
    },
    {
      "anonymous": false,
      "inputs": [
        {
          "indexed": true,
          "name": "account",
          "type": "address"
        }
      ],
      "name": "GrantorRemoved",
      "type": "event"
    },
    {
      "anonymous": false,
      "inputs": [
        {
          "indexed": true,
          "name": "account",
          "type": "address"
        }
      ],
      "name": "AccountRegistered",
      "type": "event"
    },
    {
      "anonymous": false,
      "inputs": [
        {
          "indexed": true,
          "name": "previousOwner",
          "type": "address"
        },
        {
          "indexed": true,
          "name": "newOwner",
          "type": "address"
        }
      ],
      "name": "OwnershipTransferred",
      "type": "event"
    },
    {
      "anonymous": false,
      "inputs": [
        {
          "indexed": false,
          "name": "account",
          "type": "address"
        }
      ],
      "name": "Paused",
      "type": "event"
    },
    {
      "anonymous": false,
      "inputs": [
        {
          "indexed": false,
          "name": "account",
          "type": "address"
        }
      ],
      "name": "Unpaused",
      "type": "event"
    },
    {
      "anonymous": false,
      "inputs": [
        {
          "indexed": true,
          "name": "account",
          "type": "address"
        }
      ],
      "name": "PauserAdded",
      "type": "event"
    },
    {
      "anonymous": false,
      "inputs": [
        {
          "indexed": true,
          "name": "account",
          "type": "address"
        }
      ],
      "name": "PauserRemoved",
      "type": "event"
    },
    {
      "anonymous": false,
      "inputs": [
        {
          "indexed": true,
          "name": "from",
          "type": "address"
        },
        {
          "indexed": true,
          "name": "to",
          "type": "address"
        },
        {
          "indexed": false,
          "name": "value",
          "type": "uint256"
        }
      ],
      "name": "Transfer",
      "type": "event"
    },
    {
      "anonymous": false,
      "inputs": [
        {
          "indexed": true,
          "name": "owner",
          "type": "address"
        },
        {
          "indexed": true,
          "name": "spender",
          "type": "address"
        },
        {
          "indexed": false,
          "name": "value",
          "type": "uint256"
        }
      ],
      "name": "Approval",
      "type": "event"
    },
    {
      "constant": false,
      "inputs": [
        {
          "name": "value",
          "type": "uint256"
        }
      ],
      "name": "burn",
      "outputs": [],
      "payable": false,
      "stateMutability": "nonpayable",
      "type": "function"
    },
    {
      "constant": false,
      "inputs": [],
      "name": "kill",
      "outputs": [
        {
          "name": "itsDeadJim",
          "type": "bool"
        }
      ],
      "payable": false,
      "stateMutability": "nonpayable",
      "type": "function"
    }
  ],
  "bytecode": "0x60806040523480156200001157600080fd5b506040518060400160405280600981526020017f46414e20544f4b454e00000000000000000000000000000000000000000000008152506040518060400160405280600381526020017f46414e00000000000000000000000000000000000000000000000000000000008152506012620000ac6200009d620001b5640100000000026401000000009004565b640100000000620001ba810204565b6005805460ff191690558251620000cb9060069060208601906200059a565b508151620000e19060079060208501906200059a565b506008805460ff191660ff9290921691909117905550600090506200010e640100000000620001b5810204565b6008805461010060a860020a031916610100600160a060020a03841690810291909117909155604051919250906000907f8be0079c531659141344cd1fd0a4f28419497f9722a3daafe3b4186f6b6457e0908290a350620001776401000000006200020c810204565b506200018e33600064010000000062000256810204565b620001af336b1027e72f1f12813088000000640100000000620002d3810204565b6200063c565b335b90565b620001d560048264010000000062003c6c620003f482021704565b604051600160a060020a038216907f6719d08c1888103bea251a4ed56406bd0c3e69723c8a1686e017e7bbe159b6f890600090a250565b33600081815260096020526040808220805460ff19166001179055519091907fcd822dc9688e20acea68724a2fbcfe4f3e526d20ecaa37b18fe3047ab377d6a5908390a250600190565b600160a060020a0382166200026a57600080fd5b62000285600a8364010000000062003c6c620003f482021704565b600160a060020a0382166000818152600b6020526040808220805460ff1916851515179055517f614c7c37719098320f845a142223983b9adcc4c3f2663971d5b0eb4c661a24e79190a25050565b600160a060020a0382166200034957604080517f08c379a000000000000000000000000000000000000000000000000000000000815260206004820152601f60248201527f45524332303a206d696e7420746f20746865207a65726f206164647265737300604482015290519081900360640190fd5b60035462000366908264010000000062003c0f6200049b82021704565b600355600160a060020a0382166000908152600160205260409020546200039c908264010000000062003c0f6200049b82021704565b600160a060020a03831660008181526001602090815260408083209490945583518581529351929391927fddf252ad1be2c89b69c2b068fc378daa952ba7f163c4a11628f55a4df523b3ef9281900390910190a35050565b62000409828264010000000062000517810204565b156200047657604080517f08c379a000000000000000000000000000000000000000000000000000000000815260206004820152601f60248201527f526f6c65733a206163636f756e7420616c72656164792068617320726f6c6500604482015290519081900360640190fd5b600160a060020a0316600090815260209190915260409020805460ff19166001179055565b6000828201838110156200051057604080517f08c379a000000000000000000000000000000000000000000000000000000000815260206004820152601b60248201527f536166654d6174683a206164646974696f6e206f766572666c6f770000000000604482015290519081900360640190fd5b9392505050565b6000600160a060020a0382166200057a576040517f08c379a0000000000000000000000000000000000000000000000000000000008152600401808060200182810382526022815260200180620048306022913960400191505060405180910390fd5b50600160a060020a03166000908152602091909152604090205460ff1690565b828054600181600116156101000203166002900490600052602060002090601f016020900481019282601f10620005dd57805160ff19168380011785556200060d565b828001600101855582156200060d579182015b828111156200060d578251825591602001919060010190620005f0565b506200061b9291506200061f565b5090565b620001b791905b808211156200061b576000815560010162000626565b6141e4806200064c6000396000f3fe6080604052600436106102b0576000357c01000000000000000000000000000000000000000000000000000000009004806370a0823111610177578063a9059cbb116100de578063da91254c11610097578063da91254c14610c92578063dd62ed3e14610ca7578063f2fde38b14610ce2578063fbc6d1cb14610d15578063fd1154c214610d4e578063ffa1ad7414610d99576102b0565b8063a9059cbb14610b49578063acc27b9814610b82578063b74e452b14610bdd578063c3c5a54714610c0b578063d56ad0ba14610c3e578063d9f226e914610c7d576102b0565b80638456cb59116101305780638456cb5914610a6b5780638da5cb5b14610a805780638f32d59b14610a9557806395d89b4114610aaa57806399ad427b14610abf578063a457c2d714610b10576102b0565b806370a0823114610896578063715018a6146108c957806379cc6790146108de5780637af023a91461091757806382dc1ec4146109855780638403eeb5146109b8576102b0565b80633f4ba83a1161021b57806344e393cb116101d457806344e393cb1461077457806346fbf68e146107af5780635c975abb146107e25780636d589d64146107f75780636d71a9c61461084e5780636ef8d66d14610881576102b0565b80633f4ba83a1461063657806341c0e1b51461064b57806341d5f61914610660578063423f6cef146106ce57806342842e0e1461070757806342966c681461074a576102b0565b80632455a0351161026d5780632455a0351461049b578063313ce5671461052157806332ae38481461054c578063332cc9c61461057d57806339509351146105b25780633d3b993c146105eb576102b0565b806306fdde03146102e8578063095ea7b31461037257806318160ddd146103bf578063190de9f7146103e65780631bd2cf381461041957806323b872dd14610458575b60408051348152905133917f9936746a4565f9766fa768f88f56a7487c78780ac179562773d1c75c5269537e919081900360200190a2005b3480156102f457600080fd5b506102fd610dae565b6040805160208082528351818301528351919283929083019185019080838360005b8381101561033757818101518382015260200161031f565b50505050905090810190601f1680156103645780820380516001836020036101000a031916815260200191505b509250505060405180910390f35b34801561037e57600080fd5b506103ab6004803603604081101561039557600080fd5b50600160a060020a038135169060200135610e45565b604080519115158252519081900360200190f35b3480156103cb57600080fd5b506103d4610f7c565b60408051918252519081900360200190f35b3480156103f257600080fd5b506103ab6004803603602081101561040957600080fd5b5035600160a060020a0316610f82565b34801561042557600080fd5b506103ab6004803603604081101561043c57600080fd5b508035600160a060020a0316906020013563ffffffff16610f9b565b34801561046457600080fd5b506103ab6004803603606081101561047b57600080fd5b50600160a060020a038135811691602081013590911690604001356112f6565b3480156104a757600080fd5b506104cb600480360360208110156104be57600080fd5b503563ffffffff16611355565b60408051998a5260208a01989098528888019690965263ffffffff9485166060890152928416608088015290831660a087015290911660c0850152151560e0840152151561010083015251908190036101200190f35b34801561052d57600080fd5b5061053661138c565b6040805160ff9092168252519081900360200190f35b34801561055857600080fd5b50610561611395565b60408051600160a060020a039092168252519081900360200190f35b34801561058957600080fd5b506105b0600480360360208110156105a057600080fd5b5035600160a060020a0316611399565b005b3480156105be57600080fd5b506103ab600480360360408110156105d557600080fd5b50600160a060020a0381351690602001356113ef565b3480156105f757600080fd5b506103ab6004803603608081101561060e57600080fd5b508035600160a060020a0316906020810135906040810135906060013563ffffffff1661144c565b34801561064257600080fd5b506105b061167d565b34801561065757600080fd5b506103ab611775565b34801561066c57600080fd5b506103ab600480360361010081101561068457600080fd5b50600160a060020a038135169060208101359060408101359063ffffffff6060820135811691608081013582169160a082013581169160c08101359091169060e001351515611890565b3480156106da57600080fd5b506103ab600480360360408110156106f157600080fd5b50600160a060020a038135169060200135611959565b34801561071357600080fd5b506103ab6004803603606081101561072a57600080fd5b50600160a060020a038135811691602081013590911690604001356119bc565b34801561075657600080fd5b506105b06004803603602081101561076d57600080fd5b5035611a21565b34801561078057600080fd5b506105b06004803603604081101561079757600080fd5b50600160a060020a0381351690602001351515611b10565b3480156107bb57600080fd5b506103ab600480360360208110156107d257600080fd5b5035600160a060020a0316611b68565b3480156107ee57600080fd5b506103ab611b7b565b34801561080357600080fd5b506103ab600480360360a081101561081a57600080fd5b50600160a060020a038135169063ffffffff6020820135811691604081013582169160608201351690608001351515611b84565b34801561085a57600080fd5b506103ab6004803603602081101561087157600080fd5b5035600160a060020a0316611cf2565b34801561088d57600080fd5b506105b0611d23565b3480156108a257600080fd5b506103d4600480360360208110156108b957600080fd5b5035600160a060020a0316611d35565b3480156108d557600080fd5b506105b0611d50565b3480156108ea57600080fd5b506105b06004803603604081101561090157600080fd5b50600160a060020a038135169060200135611dea565b34801561092357600080fd5b506103ab600480360361010081101561093b57600080fd5b50600160a060020a038135169060208101359060408101359063ffffffff6060820135811691608081013582169160a082013581169160c08101359091169060e001351515611df4565b34801561099157600080fd5b506105b0600480360360208110156109a857600080fd5b5035600160a060020a0316611ef0565b3480156109c457600080fd5b506105b0600480360360208110156109db57600080fd5b8101906020810181356401000000008111156109f657600080fd5b820183602082011115610a0857600080fd5b80359060200191846001830284011164010000000083111715610a2a57600080fd5b91908080601f016020809104026020016040519081016040528093929190818152602001838380828437600092019190915250929550611f42945050505050565b348015610a7757600080fd5b506105b0611f60565b348015610a8c57600080fd5b50610561612028565b348015610aa157600080fd5b506103ab61203c565b348015610ab657600080fd5b506102fd612067565b348015610acb57600080fd5b506103ab60048036036080811015610ae257600080fd5b50600160a060020a038135169063ffffffff60208201358116916040810135821691606090910135166120c8565b348015610b1c57600080fd5b506103ab60048036036040811015610b3357600080fd5b50600160a060020a038135169060200135612366565b348015610b5557600080fd5b506103ab60048036036040811015610b6c57600080fd5b50600160a060020a0381351690602001356123bc565b348015610b8e57600080fd5b50610bb560048036036020811015610ba557600080fd5b5035600160a060020a03166124a8565b6040805163ffffffff9485168152928416602084015292168183015290519081900360600190f35b348015610be957600080fd5b50610bf2612569565b6040805163ffffffff9092168252519081900360200190f35b348015610c1757600080fd5b506103ab60048036036020811015610c2e57600080fd5b5035600160a060020a0316612572565b348015610c4a57600080fd5b506104cb60048036036040811015610c6157600080fd5b508035600160a060020a0316906020013563ffffffff16612590565b348015610c8957600080fd5b506103ab6126c1565b348015610c9e57600080fd5b506102fd61270b565b348015610cb357600080fd5b506103d460048036036040811015610cca57600080fd5b50600160a060020a0381358116916020013516612774565b348015610cee57600080fd5b506105b060048036036020811015610d0557600080fd5b5035600160a060020a031661279f565b348015610d2157600080fd5b506103ab60048036036040811015610d3857600080fd5b50600160a060020a038135169060200135612806565b348015610d5a57600080fd5b506103ab60048036036080811015610d7157600080fd5b508035600160a060020a0316906020810135906040810135906060013563ffffffff1661285e565b348015610da557600080fd5b50610bf2612a42565b60068054604080516020601f6002600019610100600188161502019095169490940493840181900481028201810190925282815260609390929091830182828015610e3a5780601f10610e0f57610100808354040283529160200191610e3a565b820191906000526020600020905b815481529060010190602001808311610e1d57829003601f168201915b505050505090505b90565b60003382610e5b8282610e56612569565b612a47565b81610e6584611d35565b10610ea5576040518060400160405280601981526020017f696e73756666696369656e74207665737465642066756e647300000000000000815250610edc565b6040518060400160405280601281526020017f696e73756666696369656e742066756e647300000000000000000000000000008152505b90610f685760405160e560020a62461bcd0281526004018080602001828103825283818151815260200191508051906020019080838360005b83811015610f2d578181015183820152602001610f15565b50505050905090810190601f168015610f5a5780820380516001836020036101000a031916815260200191505b509250505060405180910390fd5b50610f738585612a5e565b95945050505050565b60035490565b6000610f95600a8363ffffffff612ab416565b92915050565b6000610fa633610f82565b610ffa576040805160e560020a62461bcd02815260206004820152600b60248201527f6f6e6c794772616e746f72000000000000000000000000000000000000000000604482015290519081900360640190fd5b600160a060020a038084166000908152600d6020908152604080832060028101549094168352600c909152812090611030612028565b600160a060020a031633600160a060020a0316148061105b57506003830154600160a060020a031633145b6110af576040805160e560020a62461bcd02815260206004820152600b60248201527f6e6f7420616c6c6f776564000000000000000000000000000000000000000000604482015290519081900360640190fd5b825460ff16611108576040805160e560020a62461bcd02815260206004820152600f60248201527f6e6f20616374697665206772616e740000000000000000000000000000000000604482015290519081900360640190fd5b8154610100900460ff16611166576040805160e560020a62461bcd02815260206004820152600b60248201527f69727265766f6361626c65000000000000000000000000000000000000000000604482015290519081900360640190fd5b8154835462010000900463ffffffff9081166601000000000000909204811691909101811690861611156111e4576040805160e560020a62461bcd02815260206004820152600960248201527f6e6f206566666563740000000000000000000000000000000000000000000000604482015290519081900360640190fd5b6111ec612569565b63ffffffff168563ffffffff16101561124f576040805160e560020a62461bcd02815260206004820152601d60248201527f63616e6e6f74207265766f6b652076657374656420686f6c64696e6773000000604482015290519081900360640190fd5b6112598686612b1e565b6003840154909150611276908790600160a060020a031683612c7a565b6003830154611290908790600160a060020a0316836112f6565b50600160a060020a0386166000818152600d6020526040808220805460ff1961ff0019909116610100171690555163ffffffff881692917f906c0c4c98565a396c542d9102cae7a794e84af6763123e068a1b277333bf4a491a350600195945050505050565b60055460009060ff1615611342576040805160e560020a62461bcd028152602060048201526010602482015260008051602061412d833981519152604482015290519081900360640190fd5b61134d848484612d6c565b949350505050565b600080600080600080600080600061136d338b612590565b9850985098509850985098509850985098509193959799909294969850565b60085460ff1690565b3390565b6113a161203c565b6113e3576040805160e560020a62461bcd0281526020600482018190526024820152600080516020614081833981519152604482015290519081900360640190fd5b6113ec81612df9565b50565b60055460009060ff161561143b576040805160e560020a62461bcd028152602060048201526010602482015260008051602061412d833981519152604482015290519081900360640190fd5b6114458383612e54565b9392505050565b60003361145881612eb1565b6114ac576040805160e560020a62461bcd02815260206004820152601960248201527f6772616e746f72206163636f756e74206e6f7420726561647900000000000000604482015290519081900360640190fd5b336000908152600e60205260409020805484919060ff16611517576040805160e560020a62461bcd02815260206004820152601660248201527f736574207265737472696374696f6e7320666972737400000000000000000000604482015290519081900360640190fd5b805463ffffffff61010090910481169083161080159061154a5750805463ffffffff650100000000009091048116908316105b61159e576040805160e560020a62461bcd02815260206004820152601260248201527f737461727444617920746f6f206561726c790000000000000000000000000000604482015290519081900360640190fd5b80546901000000000000000000900463ffffffff166115bb612569565b63ffffffff1610611616576040805160e560020a62461bcd02815260206004820152600f60248201527f6772616e746f7220657870697265640000000000000000000000000000000000604482015290519081900360640190fd5b8761162081612ecc565b611662576040805160e560020a62461bcd0281526020600482015260166024820152600080516020613fd1833981519152604482015290519081900360640190fd5b611670898989893333612eff565b9998505050505050505050565b61168d611688611395565b611b68565b6116cb5760405160e560020a62461bcd028152600401808060200182810382526030815260200180613f596030913960400191505060405180910390fd5b60055460ff16611725576040805160e560020a62461bcd02815260206004820152601460248201527f5061757361626c653a206e6f7420706175736564000000000000000000000000604482015290519081900360640190fd5b6005805460ff191690557f5db9ee0a495bf2e6ff9c91a7834c1ba4fdd244a5e8aa4e537bd38aeae4b073aa611758611395565b60408051600160a060020a039092168252519081900360200190a1565b60055460009060ff166117d2576040805160e560020a62461bcd02815260206004820152601460248201527f5061757361626c653a206e6f7420706175736564000000000000000000000000604482015290519081900360640190fd5b6117dd611688611395565b61181b5760405160e560020a62461bcd028152600401808060200182810382526030815260200180613f596030913960400191505060405180910390fd5b61182433611b68565b611878576040805160e560020a62461bcd02815260206004820152600a60248201527f6f6e6c7950617573657200000000000000000000000000000000000000000000604482015290519081900360640190fd5b6000611882612028565b905080600160a060020a0316ff5b600061189b33610f82565b6118ef576040805160e560020a62461bcd02815260206004820152600b60248201527f6f6e6c794772616e746f72000000000000000000000000000000000000000000604482015290519081900360640190fd5b886118f981612ecc565b61193b576040805160e560020a62461bcd0281526020600482015260166024820152600080516020613fd1833981519152604482015290519081900360640190fd5b61194b8a8a8a8a8a8a8a8a611df4565b9a9950505050505050505050565b60008261196581612ecc565b6119a7576040805160e560020a62461bcd0281526020600482015260166024820152600080516020613fd1833981519152604482015290519081900360640190fd5b6119b184846123bc565b506001949350505050565b6000826119c881612ecc565b611a0a576040805160e560020a62461bcd0281526020600482015260166024820152600080516020613fd1833981519152604482015290519081900360640190fd5b611a158585856112f6565b50600195945050505050565b3381611a308282610e56612569565b81611a3a84611d35565b10611a7a576040518060400160405280601981526020017f696e73756666696369656e74207665737465642066756e647300000000000000815250611ab1565b6040518060400160405280601281526020017f696e73756666696369656e742066756e647300000000000000000000000000008152505b90611b005760405160e560020a62461bcd028152602060048201818152835160248401528351909283926044909101919085019080838360008315610f2d578181015183820152602001610f15565b50611b0b3384613221565b505050565b611b1861203c565b611b5a576040805160e560020a62461bcd0281526020600482018190526024820152600080516020614081833981519152604482015290519081900360640190fd5b611b648282613320565b5050565b6000610f9560048363ffffffff612ab416565b60055460ff1690565b6000611b8e61203c565b611bd0576040805160e560020a62461bcd0281526020600482018190526024820152600080516020614081833981519152604482015290519081900360640190fd5b85611bda81612ecc565b611c1c576040805160e560020a62461bcd0281526020600482015260166024820152600080516020613fd1833981519152604482015290519081900360640190fd5b611c2587611cf2565b611c79576040805160e560020a62461bcd02815260206004820152601460248201527f756e69666f726d206772616e746f72206f6e6c79000000000000000000000000604482015290519081900360640190fd5b611c8287613392565b15611cd7576040805160e560020a62461bcd02815260206004820152601760248201527f7363686564756c6520616c726561647920657869737473000000000000000000604482015290519081900360640190fd5b611ce487868887876133b0565b506001979650505050505050565b6000611cfd82610f82565b8015610f95575050600160a060020a03166000908152600b602052604090205460ff1690565b611d33611d2e611395565b613663565b565b600160a060020a031660009081526001602052604090205490565b611d5861203c565b611d9a576040805160e560020a62461bcd0281526020600482018190526024820152600080516020614081833981519152604482015290519081900360640190fd5b6040805160e560020a62461bcd02815260206004820152600960248201527f666f7262696464656e0000000000000000000000000000000000000000000000604482015290519081900360640190fd5b611b6482826136ab565b6000611dff33610f82565b611e53576040805160e560020a62461bcd02815260206004820152600b60248201527f6f6e6c794772616e746f72000000000000000000000000000000000000000000604482015290519081900360640190fd5b600160a060020a0389166000908152600d602052604090205460ff1615611ec4576040805160e560020a62461bcd02815260206004820152601460248201527f6772616e7420616c726561647920657869737473000000000000000000000000604482015290519081900360640190fd5b611ed189858786866133b0565b50611ee0898989898d33612eff565b5060019998505050505050505050565b611efb611688611395565b611f395760405160e560020a62461bcd028152600401808060200182810382526030815260200180613f596030913960400191505060405180910390fd5b6113ec816136ff565b336000908152602081815260409091208251611b6492840190613e7b565b611f6b611688611395565b611fa95760405160e560020a62461bcd028152600401808060200182810382526030815260200180613f596030913960400191505060405180910390fd5b60055460ff1615611ff2576040805160e560020a62461bcd028152602060048201526010602482015260008051602061412d833981519152604482015290519081900360640190fd5b6005805460ff191660011790557f62e78cea01bee320cd4e420270b5ea74000d11b0c9f74754ebdbfc544b05a258611758611395565b6008546101009004600160a060020a031690565b6008546000906101009004600160a060020a0316612058611395565b600160a060020a031614905090565b60078054604080516020601f6002600019610100600188161502019095169490940493840181900481028201810190925282815260609390929091830182828015610e3a5780601f10610e0f57610100808354040283529160200191610e3a565b60006120d261203c565b612114576040805160e560020a62461bcd0281526020600482018190526024820152600080516020614081833981519152604482015290519081900360640190fd5b8461211e81612ecc565b612160576040805160e560020a62461bcd0281526020600482015260166024820152600080516020613fd1833981519152604482015290519081900360640190fd5b61216986611cf2565b801561218057508463ffffffff168463ffffffff16115b801561219e575061218f612569565b63ffffffff168363ffffffff16115b6121f2576040805160e560020a62461bcd02815260206004820152600e60248201527f696e76616c696420706172616d73000000000000000000000000000000000000604482015290519081900360640190fd5b60405180608001604052806001151581526020018663ffffffff1681526020018563ffffffff1681526020018463ffffffff16815250600e600088600160a060020a0316600160a060020a0316815260200190815260200160002060008201518160000160006101000a81548160ff02191690831515021790555060208201518160000160016101000a81548163ffffffff021916908363ffffffff16021790555060408201518160000160056101000a81548163ffffffff021916908363ffffffff16021790555060608201518160000160096101000a81548163ffffffff021916908363ffffffff16021790555090505085600160a060020a03167fd204f080300249d73110cd2c2e8d720f0362e94b8e0f1b797ac249acca176551868686604051808463ffffffff1663ffffffff1681526020018363ffffffff1663ffffffff1681526020018263ffffffff1663ffffffff168152602001935050505060405180910390a250600195945050505050565b60055460009060ff16156123b2576040805160e560020a62461bcd028152602060048201526010602482015260008051602061412d833981519152604482015290519081900360640190fd5b6114458383613747565b600033826123cd8282610e56612569565b816123d784611d35565b10612417576040518060400160405280601981526020017f696e73756666696369656e74207665737465642066756e64730000000000000081525061244e565b6040518060400160405280601281526020017f696e73756666696369656e742066756e647300000000000000000000000000008152505b9061249d5760405160e560020a62461bcd028152602060048201818152835160248401528351909283926044909101919085019080838360008315610f2d578181015183820152602001610f15565b50610f7385856137b5565b6000806000836124b733610f82565b806124ca575033600160a060020a038216145b61251e576040805160e560020a62461bcd02815260206004820152601160248201527f6f6e6c794772616e746f724f7253656c66000000000000000000000000000000604482015290519081900360640190fd5b50505050600160a060020a03166000908152600c602052604090205463ffffffff660100000000000082048116926201000083048216926a0100000000000000000000900490911690565b62015180420490565b600160a060020a031660009081526009602052604090205460ff1690565b60008060008060008060008060008a6125a833610f82565b806125bb575033600160a060020a038216145b61260f576040805160e560020a62461bcd02815260206004820152601160248201527f6f6e6c794772616e746f724f7253656c66000000000000000000000000000000604482015290519081900360640190fd5b600160a060020a03808d166000908152600d6020908152604080832060028101549094168352600c9091528120906126478f8f612b1e565b600184015490915061265f818363ffffffff61380b16565b93549254939d50909b50995063ffffffff6201000080830482169a5066010000000000008404821699508304811697506a0100000000000000000000909204909116945060ff8082169450610100909104169150509295985092959850929598565b33600081815260096020526040808220805460ff19166001179055519091907fcd822dc9688e20acea68724a2fbcfe4f3e526d20ecaa37b18fe3047ab377d6a5908390a250600190565b336000908152602081815260409182902080548351601f6002600019610100600186161502019093169290920491820184900484028101840190945280845260609392830182828015610e3a5780601f10610e0f57610100808354040283529160200191610e3a565b600160a060020a03918216600090815260026020908152604080832093909416825291909152205490565b6127a761203c565b6127e9576040805160e560020a62461bcd0281526020600482018190526024820152600080516020614081833981519152604482015290519081900360640190fd5b6127f233612df9565b6127fb8161384d565b6113ec816000613320565b60008261281281612ecc565b612854576040805160e560020a62461bcd0281526020600482015260166024820152600080516020613fd1833981519152604482015290519081900360640190fd5b6119b18484610e45565b60003361286a81612eb1565b6128be576040805160e560020a62461bcd02815260206004820152601960248201527f6772616e746f72206163636f756e74206e6f7420726561647900000000000000604482015290519081900360640190fd5b336000908152600e60205260409020805484919060ff16612929576040805160e560020a62461bcd02815260206004820152601660248201527f736574207265737472696374696f6e7320666972737400000000000000000000604482015290519081900360640190fd5b805463ffffffff61010090910481169083161080159061295c5750805463ffffffff650100000000009091048116908316105b6129b0576040805160e560020a62461bcd02815260206004820152601260248201527f737461727444617920746f6f206561726c790000000000000000000000000000604482015290519081900360640190fd5b80546901000000000000000000900463ffffffff166129cd612569565b63ffffffff1610612a28576040805160e560020a62461bcd02815260206004820152600f60248201527f6772616e746f7220657870697265640000000000000000000000000000000000604482015290519081900360640190fd5b612a36888888883333612eff565b98975050505050505050565b600881565b6000612a5384836138ec565b909211159392505050565b60055460009060ff1615612aaa576040805160e560020a62461bcd028152602060048201526010602482015260008051602061412d833981519152604482015290519081900360640190fd5b6114458383613916565b6000600160a060020a038216612afe5760405160e560020a62461bcd0281526004018080602001828103825260228152602001806140a16022913960400191505060405180910390fd5b50600160a060020a03166000908152602091909152604090205460ff1690565b600160a060020a038083166000908152600d6020908152604080832060028101549094168352600c909152812090919082612b588561392a565b835490915060ff161580612b89575081548354620100009081900463ffffffff908116919092048216018116908216105b15612b9b575050600101549050610f95565b8154835462010000900463ffffffff9081166601000000000000909204811691909101811690821610612bd45760009350505050610f95565b8254825463ffffffff6201000090920482168303916000916a010000000000000000000090048116908190841681612c0857fe5b040290506000612c558560000160069054906101000a900463ffffffff1663ffffffff16612c498463ffffffff16896001015461394690919063ffffffff16565b9063ffffffff6139a216565b6001870154909150612c6d908263ffffffff61380b16565b9650505050505050610f95565b600160a060020a038316612cc25760405160e560020a62461bcd02815260040180806020018281038252602481526020018061414d6024913960400191505060405180910390fd5b600160a060020a038216612d0a5760405160e560020a62461bcd028152600401808060200182810382526022815260200180613faf6022913960400191505060405180910390fd5b600160a060020a03808416600081815260026020908152604080832094871680845294825291829020859055815185815291517f8c5be1e5ebec7d5bd14f71427d1e84f3dd0314c0f7b2291e5b200ac8c7c3b9259281900390910190a3505050565b6000612d798484846139e4565b612def84612d85611395565b612dea8560405180606001604052806028815260200161405960289139600160a060020a038a16600090815260026020526040812090612dc3611395565b600160a060020a03168152602081019190915260400160002054919063ffffffff613b4816565b612c7a565b5060019392505050565b600160a060020a038116612e0c57600080fd5b612e1d600a8263ffffffff613ba516565b604051600160a060020a038216907f33a8bb468e8361c5c40d643192eb6970b91cb87aa0200f8709f5b805087b905390600090a250565b6000612ea8612e61611395565b84612dea8560026000612e72611395565b600160a060020a03908116825260208083019390935260409182016000908120918c16815292529020549063ffffffff613c0f16565b50600192915050565b6000612ebc82611cf2565b8015610f955750610f9582613392565b6000600160a060020a038216331480610f95575050600160a060020a031660009081526009602052604090205460ff1690565b600160a060020a0386166000908152600d602052604081205460ff1615612f70576040805160e560020a62461bcd02815260206004820152601460248201527f6772616e7420616c726561647920657869737473000000000000000000000000604482015290519081900360640190fd5b858511158015612f805750600085115b8015612f945750612acd63ffffffff851610155b8015612fa857506205bd8863ffffffff8516105b612ffc576040805160e560020a62461bcd02815260206004820152601660248201527f696e76616c69642076657374696e6720706172616d7300000000000000000000604482015290519081900360640190fd5b61300583613392565b613059576040805160e560020a62461bcd02815260206004820152601860248201527f6e6f20737563682076657374696e67207363686564756c650000000000000000604482015290519081900360640190fd5b6130648288886139e4565b6040518060c001604052806001151581526020016000151581526020018563ffffffff16815260200186815260200184600160a060020a0316815260200183600160a060020a0316815250600d600089600160a060020a0316600160a060020a0316815260200190815260200160002060008201518160000160006101000a81548160ff02191690831515021790555060208201518160000160016101000a81548160ff02191690831515021790555060408201518160000160026101000a81548163ffffffff021916908363ffffffff1602179055506060820151816001015560808201518160020160006101000a815481600160a060020a030219169083600160a060020a0316021790555060a08201518160030160006101000a815481600160a060020a030219169083600160a060020a0316021790555090505081600160a060020a03168588600160a060020a03167fce19dc9f3460f5845c81c7fa52526977d7e7275df4b1d0e40ea09653252e0c758787604051808363ffffffff1663ffffffff16815260200182600160a060020a0316600160a060020a031681526020019250505060405180910390a45060019695505050505050565b600160a060020a0382166132695760405160e560020a62461bcd0281526004018080602001828103825260218152602001806140e76021913960400191505060405180910390fd5b6132ac81604051806060016040528060228152602001613f3760229139600160a060020a038516600090815260016020526040902054919063ffffffff613b4816565b600160a060020a0383166000908152600160205260409020556003546132d8908263ffffffff61380b16565b600355604080518281529051600091600160a060020a038516917fddf252ad1be2c89b69c2b068fc378daa952ba7f163c4a11628f55a4df523b3ef9181900360200190a35050565b600160a060020a03821661333357600080fd5b613344600a8363ffffffff613c6c16565b600160a060020a0382166000818152600b6020526040808220805460ff1916851515179055517f614c7c37719098320f845a142223983b9adcc4c3f2663971d5b0eb4c661a24e79190a25050565b600160a060020a03166000908152600c602052604090205460ff1690565b6000808463ffffffff161180156133cf5750610e4463ffffffff851611155b80156133e657508363ffffffff168563ffffffff16105b80156133f9575060018363ffffffff1610155b61344d576040805160e560020a62461bcd02815260206004820152601860248201527f696e76616c69642076657374696e67207363686564756c650000000000000000604482015290519081900360640190fd5b8263ffffffff168463ffffffff168161346257fe5b0663ffffffff16600014801561349357508263ffffffff168563ffffffff168161348857fe5b0663ffffffff166000145b6134d15760405160e560020a62461bcd0281526004018080602001828103825260238152602001806141716023913960400191505060405180910390fd5b6040518060a0016040528060011515815260200183151581526020018663ffffffff1681526020018563ffffffff1681526020018463ffffffff16815250600c600088600160a060020a0316600160a060020a0316815260200190815260200160002060008201518160000160006101000a81548160ff02191690831515021790555060208201518160000160016101000a81548160ff02191690831515021790555060408201518160000160026101000a81548163ffffffff021916908363ffffffff16021790555060608201518160000160066101000a81548163ffffffff021916908363ffffffff160217905550608082015181600001600a6101000a81548163ffffffff021916908363ffffffff1602179055509050508115158463ffffffff1687600160a060020a03167fb84219eaee5910cc5311a393fbd4287b14bc791973b97f64d4b61b6d8554adc78887604051808363ffffffff1663ffffffff1681526020018263ffffffff1663ffffffff1681526020019250505060405180910390a450600195945050505050565b61367460048263ffffffff613ba516565b604051600160a060020a038216907fcd265ebaf09df2871cc7bd4133404a235ba12eff2041bb89d9c714a2621c7c7e90600090a250565b6136b58282613221565b611b64826136c1611395565b612dea846040518060600160405280602481526020016140c360249139600160a060020a038816600090815260026020526040812090612dc3611395565b61371060048263ffffffff613c6c16565b604051600160a060020a038216907f6719d08c1888103bea251a4ed56406bd0c3e69723c8a1686e017e7bbe159b6f890600090a250565b6000612ea8613754611395565b84612dea85604051806060016040528060258152602001614194602591396002600061377e611395565b600160a060020a03908116825260208083019390935260409182016000908120918d1681529252902054919063ffffffff613b4816565b60055460009060ff1615613801576040805160e560020a62461bcd028152602060048201526010602482015260008051602061412d833981519152604482015290519081900360640190fd5b6114458383613cf0565b600061144583836040518060400160405280601e81526020017f536166654d6174683a207375627472616374696f6e206f766572666c6f770000815250613b48565b8061385781612ecc565b613899576040805160e560020a62461bcd0281526020600482015260166024820152600080516020613fd1833981519152604482015290519081900360640190fd5b6138a161203c565b6138e3576040805160e560020a62461bcd0281526020600482018190526024820152600080516020614081833981519152604482015290519081900360640190fd5b611b6482613d04565b6000806138f884611d35565b90506000610f736139098686612b1e565b839063ffffffff61380b16565b6000612ea8613923611395565b8484612c7a565b600063ffffffff82161561393e5781610f95565b610f95612569565b60008261395557506000610f95565b8282028284828161396257fe5b04146114455760405160e560020a62461bcd0281526004018080602001828103825260218152602001806140386021913960400191505060405180910390fd5b600061144583836040518060400160405280601a81526020017f536166654d6174683a206469766973696f6e206279207a65726f000000000000815250613d57565b600160a060020a038316613a2c5760405160e560020a62461bcd0281526004018080602001828103825260258152602001806141086025913960400191505060405180910390fd5b600160a060020a038216613a745760405160e560020a62461bcd028152600401808060200182810382526023815260200180613f146023913960400191505060405180910390fd5b613ab781604051806060016040528060268152602001613ff160269139600160a060020a038616600090815260016020526040902054919063ffffffff613b4816565b600160a060020a038085166000908152600160205260408082209390935590841681522054613aec908263ffffffff613c0f16565b600160a060020a0380841660008181526001602090815260409182902094909455805185815290519193928716927fddf252ad1be2c89b69c2b068fc378daa952ba7f163c4a11628f55a4df523b3ef92918290030190a3505050565b60008184841115613b9d5760405160e560020a62461bcd028152602060048201818152835160248401528351909283926044909101919085019080838360008315610f2d578181015183820152602001610f15565b505050900390565b613baf8282612ab4565b613bed5760405160e560020a62461bcd0281526004018080602001828103825260218152602001806140176021913960400191505060405180910390fd5b600160a060020a0316600090815260209190915260409020805460ff19169055565b600082820183811015611445576040805160e560020a62461bcd02815260206004820152601b60248201527f536166654d6174683a206164646974696f6e206f766572666c6f770000000000604482015290519081900360640190fd5b613c768282612ab4565b15613ccb576040805160e560020a62461bcd02815260206004820152601f60248201527f526f6c65733a206163636f756e7420616c72656164792068617320726f6c6500604482015290519081900360640190fd5b600160a060020a0316600090815260209190915260409020805460ff19166001179055565b6000612ea8613cfd611395565b84846139e4565b613d0c61203c565b613d4e576040805160e560020a62461bcd0281526020600482018190526024820152600080516020614081833981519152604482015290519081900360640190fd5b6113ec81613dbf565b60008183613da95760405160e560020a62461bcd028152602060048201818152835160248401528351909283926044909101919085019080838360008315610f2d578181015183820152602001610f15565b506000838581613db557fe5b0495945050505050565b600160a060020a038116613e075760405160e560020a62461bcd028152600401808060200182810382526026815260200180613f896026913960400191505060405180910390fd5b600854604051600160a060020a0380841692610100900416907f8be0079c531659141344cd1fd0a4f28419497f9722a3daafe3b4186f6b6457e090600090a360088054600160a060020a039092166101000274ffffffffffffffffffffffffffffffffffffffff0019909216919091179055565b828054600181600116156101000203166002900490600052602060002090601f016020900481019282601f10613ebc57805160ff1916838001178555613ee9565b82800160010185558215613ee9579182015b82811115613ee9578251825591602001919060010190613ece565b50613ef5929150613ef9565b5090565b610e4291905b80821115613ef55760008155600101613eff56fe45524332303a207472616e7366657220746f20746865207a65726f206164647265737345524332303a206275726e20616d6f756e7420657863656564732062616c616e6365506175736572526f6c653a2063616c6c657220646f6573206e6f742068617665207468652050617573657220726f6c654f776e61626c653a206e6577206f776e657220697320746865207a65726f206164647265737345524332303a20617070726f766520746f20746865207a65726f20616464726573736163636f756e74206e6f7420726567697374657265640000000000000000000045524332303a207472616e7366657220616d6f756e7420657863656564732062616c616e6365526f6c65733a206163636f756e7420646f6573206e6f74206861766520726f6c65536166654d6174683a206d756c7469706c69636174696f6e206f766572666c6f7745524332303a207472616e7366657220616d6f756e74206578636565647320616c6c6f77616e63654f776e61626c653a2063616c6c6572206973206e6f7420746865206f776e6572526f6c65733a206163636f756e7420697320746865207a65726f206164647265737345524332303a206275726e20616d6f756e74206578636565647320616c6c6f77616e636545524332303a206275726e2066726f6d20746865207a65726f206164647265737345524332303a207472616e736665722066726f6d20746865207a65726f20616464726573735061757361626c653a207061757365640000000000000000000000000000000045524332303a20617070726f76652066726f6d20746865207a65726f2061646472657373696e76616c696420636c6966662f6475726174696f6e20666f7220696e74657276616c45524332303a2064656372656173656420616c6c6f77616e63652062656c6f77207a65726fa165627a7a72305820d864c59c7643752aca195b724502c825655eab3684a4eab684ceefe521a188df0029526f6c65733a206163636f756e7420697320746865207a65726f2061646472657373",
  "source": "pragma solidity ^0.5.7;\r\n\r\nimport \"./Identity.sol\";\r\nimport \"@openzeppelin/contracts/token/ERC20/ERC20Burnable.sol\";\r\nimport \"@openzeppelin/contracts/token/ERC20/ERC20Detailed.sol\";\r\nimport \"./UniformTokenGrantor.sol\";\r\n\r\ncontract FANToken is Identity, ERC20, ERC20Pausable, ERC20Burnable, ERC20Detailed, UniformTokenGrantor {\r\n    uint32 public constant VERSION = 8;\r\n\r\n    uint8 private constant DECIMALS = 18;\r\n    uint256 private constant TOKEN_WEI = 10 ** uint256(DECIMALS);\r\n\r\n    uint256 private constant INITIAL_WHOLE_TOKENS = uint256(5 * (10 ** 9));\r\n    uint256 private constant INITIAL_SUPPLY = uint256(INITIAL_WHOLE_TOKENS) * uint256(TOKEN_WEI);\r\n\r\n    constructor () ERC20Detailed(\"FAN TOKEN\", \"FAN\", DECIMALS) public {\r\n        _mint(msg.sender, INITIAL_SUPPLY);\r\n    }\r\n\r\n    event DepositReceived(address indexed from, uint256 value);\r\n\r\n    function() payable external {\r\n        emit DepositReceived(msg.sender, msg.value);\r\n    }\r\n    \r\n    function burn(uint256 value) onlyIfFundsAvailableNow(msg.sender, value) public {\r\n        _burn(msg.sender, value);\r\n    }\r\n\r\n    function kill() whenPaused onlyPauser public returns (bool itsDeadJim) {\r\n        require(isPauser(msg.sender), \"onlyPauser\");\r\n        address payable payableOwner = address(uint160(owner()));\r\n        selfdestruct(payableOwner);\r\n        return true;\r\n    }\r\n}\r\n",
  "sourcePath": "/Volumes/BigDump/Development/FANVestingToken/contracts/FANToken.sol",
  "compiler": {
    "name": "solc",
    "version": "0.5.7+commit.6da8b019.Emscripten.clang"
  },
  "schemaVersion": "3.4.8",
  "updatedAt": "2022-08-27T16:20:53.296Z",
  "devdoc": {
    "methods": {
      "allowance(address,address)": {
        "details": "See {IERC20-allowance}."
      },
      "balanceOf(address)": {
        "details": "See {IERC20-balanceOf}."
      },
      "burnFrom(address,uint256)": {
        "details": "See {ERC20-_burnFrom}."
      },
      "decimals()": {
        "details": "Returns the number of decimals used to get its user representation. For example, if `decimals` equals `2`, a balance of `505` tokens should be displayed to a user as `5,05` (`505 / 10 ** 2`).     * Tokens usually opt for a value of 18, imitating the relationship between Ether and Wei.     * NOTE: This information is only used for _display_ purposes: it in no way affects any of the arithmetic of the contract, including {IERC20-balanceOf} and {IERC20-transfer}."
      },
      "isOwner()": {
        "details": "Returns true if the caller is the current owner."
      },
      "name()": {
        "details": "Returns the name of the token."
      },
      "owner()": {
        "details": "Returns the address of the current owner."
      },
      "pause()": {
        "details": "Called by a pauser to pause, triggers stopped state."
      },
      "paused()": {
        "details": "Returns true if the contract is paused, and false otherwise."
      },
      "symbol()": {
        "details": "Returns the symbol of the token, usually a shorter version of the name."
      },
      "totalSupply()": {
        "details": "See {IERC20-totalSupply}."
      },
      "unpause()": {
        "details": "Called by a pauser to unpause, returns to normal state."
      }
    }
  },
  "userdoc": {
    "methods": {}
  }
}