{
  "contractName": "Identity",
  "abi": [
    {
      "constant": false,
      "inputs": [
        {
          "name": "shortName",
          "type": "string"
        }
      ],
      "name": "iAm",
      "outputs": [],
      "payable": false,
      "stateMutability": "nonpayable",
      "type": "function"
    },
    {
      "constant": true,
      "inputs": [],
      "name": "whereAmI",
      "outputs": [
        {
          "name": "yourAddress",
          "type": "address"
        }
      ],
      "payable": false,
      "stateMutability": "view",
      "type": "function"
    },
    {
      "constant": true,
      "inputs": [],
      "name": "whoAmI",
      "outputs": [
        {
          "name": "yourName",
          "type": "string"
        }
      ],
      "payable": false,
      "stateMutability": "view",
      "type": "function"
    }
  ],
  "bytecode": "0x608060405234801561001057600080fd5b50610341806100206000396000f3fe608060405234801561001057600080fd5b506004361061005d577c0100000000000000000000000000000000000000000000000000000000600035046332ae384881146100625780638403eeb514610093578063da91254c1461013b575b600080fd5b61006a6101b8565b6040805173ffffffffffffffffffffffffffffffffffffffff9092168252519081900360200190f35b610139600480360360208110156100a957600080fd5b8101906020810181356401000000008111156100c457600080fd5b8201836020820111156100d657600080fd5b803590602001918460018302840111640100000000831117156100f857600080fd5b91908080601f0160208091040260200160405190810160405280939291908181526020018383808284376000920191909152509295506101bd945050505050565b005b6101436101df565b6040805160208082528351818301528351919283929083019185019080838360005b8381101561017d578181015183820152602001610165565b50505050905090810190601f1680156101aa5780820380516001836020036101000a031916815260200191505b509250505060405180910390f35b335b90565b3360009081526020818152604090912082516101db9284019061027d565b5050565b336000908152602081815260409182902080548351601f60026000196101006001861615020190931692909204918201849004840281018401909452808452606093928301828280156102735780601f1061024857610100808354040283529160200191610273565b820191906000526020600020905b81548152906001019060200180831161025657829003601f168201915b5050505050905090565b828054600181600116156101000203166002900490600052602060002090601f016020900481019282601f106102be57805160ff19168380011785556102eb565b828001600101855582156102eb579182015b828111156102eb5782518255916020019190600101906102d0565b506102f79291506102fb565b5090565b6101ba91905b808211156102f7576000815560010161030156fea165627a7a72305820a8c44ceefac62dd48994d9a242b16f5c691a096f102a5dcc8fa6b94c6e0294850029",
  "source": "pragma solidity ^0.5.7;\n\ncontract Identity {\n    mapping(address => string) private _names;\n\n    function iAm(string memory shortName) public {\n        _names[msg.sender] = shortName;\n    }\n\n    function whereAmI() public view returns (address yourAddress) {\n        address myself = msg.sender;\n        return myself;\n    }\n\n    function whoAmI() public view returns (string memory yourName) {\n        return (_names[msg.sender]);\n    }\n}\n",
  "sourcePath": "/Volumes/BigDump/Development/FANVestingToken/contracts/Identity.sol",
  "compiler": {
    "name": "solc",
    "version": "0.5.7+commit.6da8b019.Emscripten.clang"
  },
  "schemaVersion": "3.4.8",
  "updatedAt": "2022-08-27T16:20:53.299Z",
  "devdoc": {
    "methods": {}
  },
  "userdoc": {
    "methods": {}
  }
}