{
  "contractName": "UniformTokenGrantor",
  "abi": [
    {
      "constant": false,
      "inputs": [
        {
          "name": "spender",
          "type": "address"
        },
        {
          "name": "value",
          "type": "uint256"
        }
      ],
      "name": "approve",
      "outputs": [
        {
          "name": "ok",
          "type": "bool"
        }
      ],
      "payable": false,
      "stateMutability": "nonpayable",
      "type": "function"
    },
    {
      "constant": true,
      "inputs": [],
      "name": "totalSupply",
      "outputs": [
        {
          "name": "",
          "type": "uint256"
        }
      ],
      "payable": false,
      "stateMutability": "view",
      "type": "function"
    },
    {
      "constant": true,
      "inputs": [
        {
          "name": "account",
          "type": "address"
        }
      ],
      "name": "isGrantor",
      "outputs": [
        {
          "name": "",
          "type": "bool"
        }
      ],
      "payable": false,
      "stateMutability": "view",
      "type": "function"
    },
    {
      "constant": false,
      "inputs": [
        {
          "name": "grantHolder",
          "type": "address"
        },
        {
          "name": "onDay",
          "type": "uint32"
        }
      ],
      "name": "revokeGrant",
      "outputs": [
        {
          "name": "ok",
          "type": "bool"
        }
      ],
      "payable": false,
      "stateMutability": "nonpayable",
      "type": "function"
    },
    {
      "constant": false,
      "inputs": [
        {
          "name": "sender",
          "type": "address"
        },
        {
          "name": "recipient",
          "type": "address"
        },
        {
          "name": "amount",
          "type": "uint256"
        }
      ],
      "name": "transferFrom",
      "outputs": [
        {
          "name": "",
          "type": "bool"
        }
      ],
      "payable": false,
      "stateMutability": "nonpayable",
      "type": "function"
    },
    {
      "constant": true,
      "inputs": [
        {
          "name": "onDayOrToday",
          "type": "uint32"
        }
      ],
      "name": "vestingAsOf",
      "outputs": [
        {
          "name": "amountVested",
          "type": "uint256"
        },
        {
          "name": "amountNotVested",
          "type": "uint256"
        },
        {
          "name": "amountOfGrant",
          "type": "uint256"
        },
        {
          "name": "vestStartDay",
          "type": "uint32"
        },
        {
          "name": "vestDuration",
          "type": "uint32"
        },
        {
          "name": "cliffDuration",
          "type": "uint32"
        },
        {
          "name": "vestIntervalDays",
          "type": "uint32"
        },
        {
          "name": "isActive",
          "type": "bool"
        },
        {
          "name": "wasRevoked",
          "type": "bool"
        }
      ],
      "payable": false,
      "stateMutability": "view",
      "type": "function"
    },
    {
      "constant": false,
      "inputs": [
        {
          "name": "account",
          "type": "address"
        }
      ],
      "name": "removeGrantor",
      "outputs": [],
      "payable": false,
      "stateMutability": "nonpayable",
      "type": "function"
    },
    {
      "constant": false,
      "inputs": [
        {
          "name": "spender",
          "type": "address"
        },
        {
          "name": "addedValue",
          "type": "uint256"
        }
      ],
      "name": "increaseAllowance",
      "outputs": [
        {
          "name": "",
          "type": "bool"
        }
      ],
      "payable": false,
      "stateMutability": "nonpayable",
      "type": "function"
    },
    {
      "constant": false,
      "inputs": [
        {
          "name": "beneficiary",
          "type": "address"
        },
        {
          "name": "totalAmount",
          "type": "uint256"
        },
        {
          "name": "vestingAmount",
          "type": "uint256"
        },
        {
          "name": "startDay",
          "type": "uint32"
        },
        {
          "name": "duration",
          "type": "uint32"
        },
        {
          "name": "cliffDuration",
          "type": "uint32"
        },
        {
          "name": "interval",
          "type": "uint32"
        },
        {
          "name": "isRevocable",
          "type": "bool"
        }
      ],
      "name": "safeGrantVestingTokens",
      "outputs": [
        {
          "name": "ok",
          "type": "bool"
        }
      ],
      "payable": false,
      "stateMutability": "nonpayable",
      "type": "function"
    },
    {
      "constant": false,
      "inputs": [
        {
          "name": "to",
          "type": "address"
        },
        {
          "name": "value",
          "type": "uint256"
        }
      ],
      "name": "safeTransfer",
      "outputs": [
        {
          "name": "ok",
          "type": "bool"
        }
      ],
      "payable": false,
      "stateMutability": "nonpayable",
      "type": "function"
    },
    {
      "constant": false,
      "inputs": [
        {
          "name": "from",
          "type": "address"
        },
        {
          "name": "to",
          "type": "address"
        },
        {
          "name": "value",
          "type": "uint256"
        }
      ],
      "name": "safeTransferFrom",
      "outputs": [
        {
          "name": "ok",
          "type": "bool"
        }
      ],
      "payable": false,
      "stateMutability": "nonpayable",
      "type": "function"
    },
    {
      "constant": false,
      "inputs": [
        {
          "name": "account",
          "type": "address"
        },
        {
          "name": "isUniformGrantor",
          "type": "bool"
        }
      ],
      "name": "addGrantor",
      "outputs": [],
      "payable": false,
      "stateMutability": "nonpayable",
      "type": "function"
    },
    {
      "constant": true,
      "inputs": [
        {
          "name": "account",
          "type": "address"
        }
      ],
      "name": "isUniformGrantor",
      "outputs": [
        {
          "name": "",
          "type": "bool"
        }
      ],
      "payable": false,
      "stateMutability": "view",
      "type": "function"
    },
    {
      "constant": true,
      "inputs": [
        {
          "name": "account",
          "type": "address"
        }
      ],
      "name": "balanceOf",
      "outputs": [
        {
          "name": "",
          "type": "uint256"
        }
      ],
      "payable": false,
      "stateMutability": "view",
      "type": "function"
    },
    {
      "constant": false,
      "inputs": [],
      "name": "renounceOwnership",
      "outputs": [],
      "payable": false,
      "stateMutability": "nonpayable",
      "type": "function"
    },
    {
      "constant": false,
      "inputs": [
        {
          "name": "beneficiary",
          "type": "address"
        },
        {
          "name": "totalAmount",
          "type": "uint256"
        },
        {
          "name": "vestingAmount",
          "type": "uint256"
        },
        {
          "name": "startDay",
          "type": "uint32"
        },
        {
          "name": "duration",
          "type": "uint32"
        },
        {
          "name": "cliffDuration",
          "type": "uint32"
        },
        {
          "name": "interval",
          "type": "uint32"
        },
        {
          "name": "isRevocable",
          "type": "bool"
        }
      ],
      "name": "grantVestingTokens",
      "outputs": [
        {
          "name": "ok",
          "type": "bool"
        }
      ],
      "payable": false,
      "stateMutability": "nonpayable",
      "type": "function"
    },
    {
      "constant": true,
      "inputs": [],
      "name": "owner",
      "outputs": [
        {
          "name": "",
          "type": "address"
        }
      ],
      "payable": false,
      "stateMutability": "view",
      "type": "function"
    },
    {
      "constant": true,
      "inputs": [],
      "name": "isOwner",
      "outputs": [
        {
          "name": "",
          "type": "bool"
        }
      ],
      "payable": false,
      "stateMutability": "view",
      "type": "function"
    },
    {
      "constant": false,
      "inputs": [
        {
          "name": "spender",
          "type": "address"
        },
        {
          "name": "subtractedValue",
          "type": "uint256"
        }
      ],
      "name": "decreaseAllowance",
      "outputs": [
        {
          "name": "",
          "type": "bool"
        }
      ],
      "payable": false,
      "stateMutability": "nonpayable",
      "type": "function"
    },
    {
      "constant": false,
      "inputs": [
        {
          "name": "to",
          "type": "address"
        },
        {
          "name": "value",
          "type": "uint256"
        }
      ],
      "name": "transfer",
      "outputs": [
        {
          "name": "ok",
          "type": "bool"
        }
      ],
      "payable": false,
      "stateMutability": "nonpayable",
      "type": "function"
    },
    {
      "constant": true,
      "inputs": [
        {
          "name": "grantHolder",
          "type": "address"
        }
      ],
      "name": "getIntrinsicVestingSchedule",
      "outputs": [
        {
          "name": "vestDuration",
          "type": "uint32"
        },
        {
          "name": "cliffDuration",
          "type": "uint32"
        },
        {
          "name": "vestIntervalDays",
          "type": "uint32"
        }
      ],
      "payable": false,
      "stateMutability": "view",
      "type": "function"
    },
    {
      "constant": true,
      "inputs": [],
      "name": "today",
      "outputs": [
        {
          "name": "dayNumber",
          "type": "uint32"
        }
      ],
      "payable": false,
      "stateMutability": "view",
      "type": "function"
    },
    {
      "constant": true,
      "inputs": [
        {
          "name": "account",
          "type": "address"
        }
      ],
      "name": "isRegistered",
      "outputs": [
        {
          "name": "ok",
          "type": "bool"
        }
      ],
      "payable": false,
      "stateMutability": "view",
      "type": "function"
    },
    {
      "constant": true,
      "inputs": [
        {
          "name": "grantHolder",
          "type": "address"
        },
        {
          "name": "onDayOrToday",
          "type": "uint32"
        }
      ],
      "name": "vestingForAccountAsOf",
      "outputs": [
        {
          "name": "amountVested",
          "type": "uint256"
        },
        {
          "name": "amountNotVested",
          "type": "uint256"
        },
        {
          "name": "amountOfGrant",
          "type": "uint256"
        },
        {
          "name": "vestStartDay",
          "type": "uint32"
        },
        {
          "name": "vestDuration",
          "type": "uint32"
        },
        {
          "name": "cliffDuration",
          "type": "uint32"
        },
        {
          "name": "vestIntervalDays",
          "type": "uint32"
        },
        {
          "name": "isActive",
          "type": "bool"
        },
        {
          "name": "wasRevoked",
          "type": "bool"
        }
      ],
      "payable": false,
      "stateMutability": "view",
      "type": "function"
    },
    {
      "constant": false,
      "inputs": [],
      "name": "registerAccount",
      "outputs": [
        {
          "name": "ok",
          "type": "bool"
        }
      ],
      "payable": false,
      "stateMutability": "nonpayable",
      "type": "function"
    },
    {
      "constant": true,
      "inputs": [
        {
          "name": "owner",
          "type": "address"
        },
        {
          "name": "spender",
          "type": "address"
        }
      ],
      "name": "allowance",
      "outputs": [
        {
          "name": "",
          "type": "uint256"
        }
      ],
      "payable": false,
      "stateMutability": "view",
      "type": "function"
    },
    {
      "constant": false,
      "inputs": [
        {
          "name": "newOwner",
          "type": "address"
        }
      ],
      "name": "transferOwnership",
      "outputs": [],
      "payable": false,
      "stateMutability": "nonpayable",
      "type": "function"
    },
    {
      "constant": false,
      "inputs": [
        {
          "name": "spender",
          "type": "address"
        },
        {
          "name": "value",
          "type": "uint256"
        }
      ],
      "name": "safeApprove",
      "outputs": [
        {
          "name": "ok",
          "type": "bool"
        }
      ],
      "payable": false,
      "stateMutability": "nonpayable",
      "type": "function"
    },
    {
      "anonymous": false,
      "inputs": [
        {
          "indexed": true,
          "name": "grantor",
          "type": "address"
        },
        {
          "indexed": false,
          "name": "minStartDay",
          "type": "uint32"
        },
        {
          "indexed": false,
          "name": "maxStartDay",
          "type": "uint32"
        },
        {
          "indexed": false,
          "name": "expirationDay",
          "type": "uint32"
        }
      ],
      "name": "GrantorRestrictionsSet",
      "type": "event"
    },
    {
      "anonymous": false,
      "inputs": [
        {
          "indexed": true,
          "name": "vestingLocation",
          "type": "address"
        },
        {
          "indexed": false,
          "name": "cliffDuration",
          "type": "uint32"
        },
        {
          "indexed": true,
          "name": "duration",
          "type": "uint32"
        },
        {
          "indexed": false,
          "name": "interval",
          "type": "uint32"
        },
        {
          "indexed": true,
          "name": "isRevocable",
          "type": "bool"
        }
      ],
      "name": "VestingScheduleCreated",
      "type": "event"
    },
    {
      "anonymous": false,
      "inputs": [
        {
          "indexed": true,
          "name": "beneficiary",
          "type": "address"
        },
        {
          "indexed": true,
          "name": "vestingAmount",
          "type": "uint256"
        },
        {
          "indexed": false,
          "name": "startDay",
          "type": "uint32"
        },
        {
          "indexed": false,
          "name": "vestingLocation",
          "type": "address"
        },
        {
          "indexed": true,
          "name": "grantor",
          "type": "address"
        }
      ],
      "name": "VestingTokensGranted",
      "type": "event"
    },
    {
      "anonymous": false,
      "inputs": [
        {
          "indexed": true,
          "name": "grantHolder",
          "type": "address"
        },
        {
          "indexed": true,
          "name": "onDay",
          "type": "uint32"
        }
      ],
      "name": "GrantRevoked",
      "type": "event"
    },
    {
      "anonymous": false,
      "inputs": [
        {
          "indexed": true,
          "name": "account",
          "type": "address"
        }
      ],
      "name": "GrantorAdded",
      "type": "event"
    },
    {
      "anonymous": false,
      "inputs": [
        {
          "indexed": true,
          "name": "account",
          "type": "address"
        }
      ],
      "name": "GrantorRemoved",
      "type": "event"
    },
    {
      "anonymous": false,
      "inputs": [
        {
          "indexed": true,
          "name": "account",
          "type": "address"
        }
      ],
      "name": "AccountRegistered",
      "type": "event"
    },
    {
      "anonymous": false,
      "inputs": [
        {
          "indexed": true,
          "name": "previousOwner",
          "type": "address"
        },
        {
          "indexed": true,
          "name": "newOwner",
          "type": "address"
        }
      ],
      "name": "OwnershipTransferred",
      "type": "event"
    },
    {
      "anonymous": false,
      "inputs": [
        {
          "indexed": true,
          "name": "from",
          "type": "address"
        },
        {
          "indexed": true,
          "name": "to",
          "type": "address"
        },
        {
          "indexed": false,
          "name": "value",
          "type": "uint256"
        }
      ],
      "name": "Transfer",
      "type": "event"
    },
    {
      "anonymous": false,
      "inputs": [
        {
          "indexed": true,
          "name": "owner",
          "type": "address"
        },
        {
          "indexed": true,
          "name": "spender",
          "type": "address"
        },
        {
          "indexed": false,
          "name": "value",
          "type": "uint256"
        }
      ],
      "name": "Approval",
      "type": "event"
    },
    {
      "constant": false,
      "inputs": [
        {
          "name": "grantor",
          "type": "address"
        },
        {
          "name": "minStartDay",
          "type": "uint32"
        },
        {
          "name": "maxStartDay",
          "type": "uint32"
        },
        {
          "name": "expirationDay",
          "type": "uint32"
        }
      ],
      "name": "setRestrictions",
      "outputs": [
        {
          "name": "ok",
          "type": "bool"
        }
      ],
      "payable": false,
      "stateMutability": "nonpayable",
      "type": "function"
    },
    {
      "constant": false,
      "inputs": [
        {
          "name": "grantor",
          "type": "address"
        },
        {
          "name": "duration",
          "type": "uint32"
        },
        {
          "name": "cliffDuration",
          "type": "uint32"
        },
        {
          "name": "interval",
          "type": "uint32"
        },
        {
          "name": "isRevocable",
          "type": "bool"
        }
      ],
      "name": "setGrantorVestingSchedule",
      "outputs": [
        {
          "name": "ok",
          "type": "bool"
        }
      ],
      "payable": false,
      "stateMutability": "nonpayable",
      "type": "function"
    },
    {
      "constant": false,
      "inputs": [
        {
          "name": "beneficiary",
          "type": "address"
        },
        {
          "name": "totalAmount",
          "type": "uint256"
        },
        {
          "name": "vestingAmount",
          "type": "uint256"
        },
        {
          "name": "startDay",
          "type": "uint32"
        }
      ],
      "name": "grantUniformVestingTokens",
      "outputs": [
        {
          "name": "ok",
          "type": "bool"
        }
      ],
      "payable": false,
      "stateMutability": "nonpayable",
      "type": "function"
    },
    {
      "constant": false,
      "inputs": [
        {
          "name": "beneficiary",
          "type": "address"
        },
        {
          "name": "totalAmount",
          "type": "uint256"
        },
        {
          "name": "vestingAmount",
          "type": "uint256"
        },
        {
          "name": "startDay",
          "type": "uint32"
        }
      ],
      "name": "safeGrantUniformVestingTokens",
      "outputs": [
        {
          "name": "ok",
          "type": "bool"
        }
      ],
      "payable": false,
      "stateMutability": "nonpayable",
      "type": "function"
    }
  ],
  "bytecode": "0x608060405260006200001964010000000062000097810204565b60038054600160a060020a031916600160a060020a038316908117909155604051919250906000907f8be0079c531659141344cd1fd0a4f28419497f9722a3daafe3b4186f6b6457e0908290a3506200007a6401000000006200009b810204565b5062000091336000640100000000620000e5810204565b6200028c565b3390565b33600081815260046020526040808220805460ff19166001179055519091907fcd822dc9688e20acea68724a2fbcfe4f3e526d20ecaa37b18fe3047ab377d6a5908390a250600190565b600160a060020a038216620000f957600080fd5b6200011460058364010000000062002d956200016282021704565b600160a060020a038216600081815260066020526040808220805460ff1916851515179055517f614c7c37719098320f845a142223983b9adcc4c3f2663971d5b0eb4c661a24e79190a25050565b62000177828264010000000062000209810204565b15620001e457604080517f08c379a000000000000000000000000000000000000000000000000000000000815260206004820152601f60248201527f526f6c65733a206163636f756e7420616c72656164792068617320726f6c6500604482015290519081900360640190fd5b600160a060020a0316600090815260209190915260409020805460ff19166001179055565b6000600160a060020a0382166200026c576040517f08c379a00000000000000000000000000000000000000000000000000000000081526004018080602001828103825260228152602001806200343b6022913960400191505060405180910390fd5b50600160a060020a03166000908152602091909152604090205460ff1690565b61319f806200029c6000396000f3fe608060405234801561001057600080fd5b506004361061020d576000357c010000000000000000000000000000000000000000000000000000000090048063715018a61161012c578063b74e452b116100bf578063dd62ed3e1161008e578063dd62ed3e1461078c578063f2fde38b146107ba578063fbc6d1cb146107e0578063fd1154c21461080c5761020d565b8063b74e452b1461070b578063c3c5a5471461072c578063d56ad0ba14610752578063d9f226e9146107845761020d565b806399ad427b116100fb57806399ad427b14610621578063a457c2d714610665578063a9059cbb14610691578063acc27b98146106bd5761020d565b8063715018a61461058c5780637af023a9146105945780638da5cb5b146105f55780638f32d59b146106195761020d565b80633d3b993c116101a457806344e393cb1161017357806344e393cb146104c85780636d589d64146104f65780636d71a9c61461054057806370a08231146105665761020d565b80633d3b993c146103c757806341d5f61914610405578063423f6cef1461046657806342842e0e146104925761020d565b806323b872dd116101e057806323b872dd146102c45780632455a035146102fa578063332cc9c614610373578063395093511461039b5761020d565b8063095ea7b31461021257806318160ddd14610252578063190de9f71461026c5780631bd2cf3814610292575b600080fd5b61023e6004803603604081101561022857600080fd5b50600160a060020a03813516906020013561084a565b604080519115158252519081900360200190f35b61025a610981565b60408051918252519081900360200190f35b61023e6004803603602081101561028257600080fd5b5035600160a060020a0316610987565b61023e600480360360408110156102a857600080fd5b508035600160a060020a0316906020013563ffffffff166109a0565b61023e600480360360608110156102da57600080fd5b50600160a060020a03813581169160208101359091169060400135610cfb565b61031d6004803603602081101561031057600080fd5b503563ffffffff16610d88565b60408051998a5260208a01989098528888019690965263ffffffff9485166060890152928416608088015290831660a087015290911660c0850152151560e0840152151561010083015251908190036101200190f35b6103996004803603602081101561038957600080fd5b5035600160a060020a0316610dbf565b005b61023e600480360360408110156103b157600080fd5b50600160a060020a038135169060200135610e15565b61023e600480360360808110156103dd57600080fd5b508035600160a060020a0316906020810135906040810135906060013563ffffffff16610e72565b61023e600480360361010081101561041c57600080fd5b50600160a060020a038135169060208101359060408101359063ffffffff6060820135811691608081013582169160a082013581169160c08101359091169060e0013515156110a3565b61023e6004803603604081101561047c57600080fd5b50600160a060020a03813516906020013561116c565b61023e600480360360608110156104a857600080fd5b50600160a060020a038135811691602081013590911690604001356111cf565b610399600480360360408110156104de57600080fd5b50600160a060020a0381351690602001351515611234565b61023e600480360360a081101561050c57600080fd5b50600160a060020a038135169063ffffffff602082013581169160408101358216916060820135169060800135151561128c565b61023e6004803603602081101561055657600080fd5b5035600160a060020a03166113fa565b61025a6004803603602081101561057c57600080fd5b5035600160a060020a031661142b565b610399611446565b61023e60048036036101008110156105ab57600080fd5b50600160a060020a038135169060208101359060408101359063ffffffff6060820135811691608081013582169160a082013581169160c08101359091169060e0013515156114e0565b6105fd6115dc565b60408051600160a060020a039092168252519081900360200190f35b61023e6115eb565b61023e6004803603608081101561063757600080fd5b50600160a060020a038135169063ffffffff6020820135811691604081013582169160609091013516611611565b61023e6004803603604081101561067b57600080fd5b50600160a060020a0381351690602001356118af565b61023e600480360360408110156106a757600080fd5b50600160a060020a03813516906020013561191d565b6106e3600480360360208110156106d357600080fd5b5035600160a060020a0316611a09565b6040805163ffffffff9485168152928416602084015292168183015290519081900360600190f35b610713611aca565b6040805163ffffffff9092168252519081900360200190f35b61023e6004803603602081101561074257600080fd5b5035600160a060020a0316611ad3565b61031d6004803603604081101561076857600080fd5b508035600160a060020a0316906020013563ffffffff16611af1565b61023e611c22565b61025a600480360360408110156107a257600080fd5b50600160a060020a0381358116916020013516611c6c565b610399600480360360208110156107d057600080fd5b5035600160a060020a0316611c97565b61023e600480360360408110156107f657600080fd5b50600160a060020a038135169060200135611cfe565b61023e6004803603608081101561082257600080fd5b508035600160a060020a0316906020810135906040810135906060013563ffffffff16611d56565b60003382610860828261085b611aca565b611f3a565b8161086a8461142b565b106108aa576040518060400160405280601981526020017f696e73756666696369656e74207665737465642066756e6473000000000000008152506108e1565b6040518060400160405280601281526020017f696e73756666696369656e742066756e647300000000000000000000000000008152505b9061096d5760405160e560020a62461bcd0281526004018080602001828103825283818151815260200191508051906020019080838360005b8381101561093257818101518382015260200161091a565b50505050905090810190601f16801561095f5780820380516001836020036101000a031916815260200191505b509250505060405180910390fd5b506109788585611f51565b95945050505050565b60025490565b600061099a60058363ffffffff611f6516565b92915050565b60006109ab33610987565b6109ff576040805160e560020a62461bcd02815260206004820152600b60248201527f6f6e6c794772616e746f72000000000000000000000000000000000000000000604482015290519081900360640190fd5b600160a060020a038084166000908152600860209081526040808320600281015490941683526007909152812090610a356115dc565b600160a060020a031633600160a060020a03161480610a6057506003830154600160a060020a031633145b610ab4576040805160e560020a62461bcd02815260206004820152600b60248201527f6e6f7420616c6c6f776564000000000000000000000000000000000000000000604482015290519081900360640190fd5b825460ff16610b0d576040805160e560020a62461bcd02815260206004820152600f60248201527f6e6f20616374697665206772616e740000000000000000000000000000000000604482015290519081900360640190fd5b8154610100900460ff16610b6b576040805160e560020a62461bcd02815260206004820152600b60248201527f69727265766f6361626c65000000000000000000000000000000000000000000604482015290519081900360640190fd5b8154835462010000900463ffffffff908116660100000000000090920481169190910181169086161115610be9576040805160e560020a62461bcd02815260206004820152600960248201527f6e6f206566666563740000000000000000000000000000000000000000000000604482015290519081900360640190fd5b610bf1611aca565b63ffffffff168563ffffffff161015610c54576040805160e560020a62461bcd02815260206004820152601d60248201527f63616e6e6f74207265766f6b652076657374656420686f6c64696e6773000000604482015290519081900360640190fd5b610c5e8686611fcf565b6003840154909150610c7b908790600160a060020a03168361212b565b6003830154610c95908790600160a060020a031683610cfb565b50600160a060020a038616600081815260086020526040808220805460ff1961ff0019909116610100171690555163ffffffff881692917f906c0c4c98565a396c542d9102cae7a794e84af6763123e068a1b277333bf4a491a350600195945050505050565b6000610d0884848461221d565b610d7e84610d1461237f565b610d798560405180606001604052806028815260200161307960289139600160a060020a038a16600090815260016020526040812090610d5261237f565b600160a060020a03168152602081019190915260400160002054919063ffffffff61238316565b61212b565b5060019392505050565b6000806000806000806000806000610da0338b611af1565b9850985098509850985098509850985098509193959799909294969850565b610dc76115eb565b610e09576040805160e560020a62461bcd02815260206004820181905260248201526000805160206130a1833981519152604482015290519081900360640190fd5b610e12816123e0565b50565b6000610e69610e2261237f565b84610d798560016000610e3361237f565b600160a060020a03908116825260208083019390935260409182016000908120918c16815292529020549063ffffffff61243b16565b50600192915050565b600033610e7e8161249f565b610ed2576040805160e560020a62461bcd02815260206004820152601960248201527f6772616e746f72206163636f756e74206e6f7420726561647900000000000000604482015290519081900360640190fd5b336000908152600960205260409020805484919060ff16610f3d576040805160e560020a62461bcd02815260206004820152601660248201527f736574207265737472696374696f6e7320666972737400000000000000000000604482015290519081900360640190fd5b805463ffffffff610100909104811690831610801590610f705750805463ffffffff650100000000009091048116908316105b610fc4576040805160e560020a62461bcd02815260206004820152601260248201527f737461727444617920746f6f206561726c790000000000000000000000000000604482015290519081900360640190fd5b80546901000000000000000000900463ffffffff16610fe1611aca565b63ffffffff161061103c576040805160e560020a62461bcd02815260206004820152600f60248201527f6772616e746f7220657870697265640000000000000000000000000000000000604482015290519081900360640190fd5b87611046816124ba565b611088576040805160e560020a62461bcd0281526020600482015260166024820152600080516020612ff1833981519152604482015290519081900360640190fd5b6110968989898933336124ed565b9998505050505050505050565b60006110ae33610987565b611102576040805160e560020a62461bcd02815260206004820152600b60248201527f6f6e6c794772616e746f72000000000000000000000000000000000000000000604482015290519081900360640190fd5b8861110c816124ba565b61114e576040805160e560020a62461bcd0281526020600482015260166024820152600080516020612ff1833981519152604482015290519081900360640190fd5b61115e8a8a8a8a8a8a8a8a6114e0565b9a9950505050505050505050565b600082611178816124ba565b6111ba576040805160e560020a62461bcd0281526020600482015260166024820152600080516020612ff1833981519152604482015290519081900360640190fd5b6111c4848461191d565b506001949350505050565b6000826111db816124ba565b61121d576040805160e560020a62461bcd0281526020600482015260166024820152600080516020612ff1833981519152604482015290519081900360640190fd5b611228858585610cfb565b50600195945050505050565b61123c6115eb565b61127e576040805160e560020a62461bcd02815260206004820181905260248201526000805160206130a1833981519152604482015290519081900360640190fd5b611288828261280f565b5050565b60006112966115eb565b6112d8576040805160e560020a62461bcd02815260206004820181905260248201526000805160206130a1833981519152604482015290519081900360640190fd5b856112e2816124ba565b611324576040805160e560020a62461bcd0281526020600482015260166024820152600080516020612ff1833981519152604482015290519081900360640190fd5b61132d876113fa565b611381576040805160e560020a62461bcd02815260206004820152601460248201527f756e69666f726d206772616e746f72206f6e6c79000000000000000000000000604482015290519081900360640190fd5b61138a87612881565b156113df576040805160e560020a62461bcd02815260206004820152601760248201527f7363686564756c6520616c726561647920657869737473000000000000000000604482015290519081900360640190fd5b6113ec878688878761289f565b506001979650505050505050565b600061140582610987565b801561099a575050600160a060020a031660009081526006602052604090205460ff1690565b600160a060020a031660009081526020819052604090205490565b61144e6115eb565b611490576040805160e560020a62461bcd02815260206004820181905260248201526000805160206130a1833981519152604482015290519081900360640190fd5b6040805160e560020a62461bcd02815260206004820152600960248201527f666f7262696464656e0000000000000000000000000000000000000000000000604482015290519081900360640190fd5b60006114eb33610987565b61153f576040805160e560020a62461bcd02815260206004820152600b60248201527f6f6e6c794772616e746f72000000000000000000000000000000000000000000604482015290519081900360640190fd5b600160a060020a03891660009081526008602052604090205460ff16156115b0576040805160e560020a62461bcd02815260206004820152601460248201527f6772616e7420616c726561647920657869737473000000000000000000000000604482015290519081900360640190fd5b6115bd898587868661289f565b506115cc898989898d336124ed565b5060019998505050505050505050565b600354600160a060020a031690565b600354600090600160a060020a031661160261237f565b600160a060020a031614905090565b600061161b6115eb565b61165d576040805160e560020a62461bcd02815260206004820181905260248201526000805160206130a1833981519152604482015290519081900360640190fd5b84611667816124ba565b6116a9576040805160e560020a62461bcd0281526020600482015260166024820152600080516020612ff1833981519152604482015290519081900360640190fd5b6116b2866113fa565b80156116c957508463ffffffff168463ffffffff16115b80156116e757506116d8611aca565b63ffffffff168363ffffffff16115b61173b576040805160e560020a62461bcd02815260206004820152600e60248201527f696e76616c696420706172616d73000000000000000000000000000000000000604482015290519081900360640190fd5b60405180608001604052806001151581526020018663ffffffff1681526020018563ffffffff1681526020018463ffffffff168152506009600088600160a060020a0316600160a060020a0316815260200190815260200160002060008201518160000160006101000a81548160ff02191690831515021790555060208201518160000160016101000a81548163ffffffff021916908363ffffffff16021790555060408201518160000160056101000a81548163ffffffff021916908363ffffffff16021790555060608201518160000160096101000a81548163ffffffff021916908363ffffffff16021790555090505085600160a060020a03167fd204f080300249d73110cd2c2e8d720f0362e94b8e0f1b797ac249acca176551868686604051808463ffffffff1663ffffffff1681526020018363ffffffff1663ffffffff1681526020018263ffffffff1663ffffffff168152602001935050505060405180910390a250600195945050505050565b6000610e696118bc61237f565b84610d798560405180606001604052806025815260200161314f60259139600160006118e661237f565b600160a060020a03908116825260208083019390935260409182016000908120918d1681529252902054919063ffffffff61238316565b6000338261192e828261085b611aca565b816119388461142b565b10611978576040518060400160405280601981526020017f696e73756666696369656e74207665737465642066756e6473000000000000008152506119af565b6040518060400160405280601281526020017f696e73756666696369656e742066756e647300000000000000000000000000008152505b906119fe5760405160e560020a62461bcd02815260206004820181815283516024840152835190928392604490910191908501908083836000831561093257818101518382015260200161091a565b506109788585612b52565b600080600083611a1833610987565b80611a2b575033600160a060020a038216145b611a7f576040805160e560020a62461bcd02815260206004820152601160248201527f6f6e6c794772616e746f724f7253656c66000000000000000000000000000000604482015290519081900360640190fd5b50505050600160a060020a031660009081526007602052604090205463ffffffff660100000000000082048116926201000083048216926a0100000000000000000000900490911690565b62015180420490565b600160a060020a031660009081526004602052604090205460ff1690565b60008060008060008060008060008a611b0933610987565b80611b1c575033600160a060020a038216145b611b70576040805160e560020a62461bcd02815260206004820152601160248201527f6f6e6c794772616e746f724f7253656c66000000000000000000000000000000604482015290519081900360640190fd5b600160a060020a03808d166000908152600860209081526040808320600281015490941683526007909152812090611ba88f8f611fcf565b6001840154909150611bc0818363ffffffff612b6616565b93549254939d50909b50995063ffffffff6201000080830482169a5066010000000000008404821699508304811697506a0100000000000000000000909204909116945060ff8082169450610100909104169150509295985092959850929598565b33600081815260046020526040808220805460ff19166001179055519091907fcd822dc9688e20acea68724a2fbcfe4f3e526d20ecaa37b18fe3047ab377d6a5908390a250600190565b600160a060020a03918216600090815260016020908152604080832093909416825291909152205490565b611c9f6115eb565b611ce1576040805160e560020a62461bcd02815260206004820181905260248201526000805160206130a1833981519152604482015290519081900360640190fd5b611cea336123e0565b611cf381612ba8565b610e1281600061280f565b600082611d0a816124ba565b611d4c576040805160e560020a62461bcd0281526020600482015260166024820152600080516020612ff1833981519152604482015290519081900360640190fd5b6111c4848461084a565b600033611d628161249f565b611db6576040805160e560020a62461bcd02815260206004820152601960248201527f6772616e746f72206163636f756e74206e6f7420726561647900000000000000604482015290519081900360640190fd5b336000908152600960205260409020805484919060ff16611e21576040805160e560020a62461bcd02815260206004820152601660248201527f736574207265737472696374696f6e7320666972737400000000000000000000604482015290519081900360640190fd5b805463ffffffff610100909104811690831610801590611e545750805463ffffffff650100000000009091048116908316105b611ea8576040805160e560020a62461bcd02815260206004820152601260248201527f737461727444617920746f6f206561726c790000000000000000000000000000604482015290519081900360640190fd5b80546901000000000000000000900463ffffffff16611ec5611aca565b63ffffffff1610611f20576040805160e560020a62461bcd02815260206004820152600f60248201527f6772616e746f7220657870697265640000000000000000000000000000000000604482015290519081900360640190fd5b611f2e8888888833336124ed565b98975050505050505050565b6000611f468483612c47565b909211159392505050565b6000610e69611f5e61237f565b848461212b565b6000600160a060020a038216611faf5760405160e560020a62461bcd0281526004018080602001828103825260228152602001806130c16022913960400191505060405180910390fd5b50600160a060020a03166000908152602091909152604090205460ff1690565b600160a060020a03808316600090815260086020908152604080832060028101549094168352600790915281209091908261200985612c71565b835490915060ff16158061203a575081548354620100009081900463ffffffff908116919092048216018116908216105b1561204c57505060010154905061099a565b8154835462010000900463ffffffff9081166601000000000000909204811691909101811690821610612085576000935050505061099a565b8254825463ffffffff6201000090920482168303916000916a0100000000000000000000900481169081908416816120b957fe5b0402905060006121068560000160069054906101000a900463ffffffff1663ffffffff166120fa8463ffffffff168960010154612c8d90919063ffffffff16565b9063ffffffff612ce916565b600187015490915061211e908263ffffffff612b6616565b965050505050505061099a565b600160a060020a0383166121735760405160e560020a62461bcd0281526004018080602001828103825260248152602001806131086024913960400191505060405180910390fd5b600160a060020a0382166121bb5760405160e560020a62461bcd028152600401808060200182810382526022815260200180612fcf6022913960400191505060405180910390fd5b600160a060020a03808416600081815260016020908152604080832094871680845294825291829020859055815185815291517f8c5be1e5ebec7d5bd14f71427d1e84f3dd0314c0f7b2291e5b200ac8c7c3b9259281900390910190a3505050565b600160a060020a0383166122655760405160e560020a62461bcd0281526004018080602001828103825260258152602001806130e36025913960400191505060405180910390fd5b600160a060020a0382166122ad5760405160e560020a62461bcd028152600401808060200182810382526023815260200180612f866023913960400191505060405180910390fd5b6122f08160405180606001604052806026815260200161301160269139600160a060020a038616600090815260208190526040902054919063ffffffff61238316565b600160a060020a038085166000908152602081905260408082209390935590841681522054612325908263ffffffff61243b16565b600160a060020a038084166000818152602081815260409182902094909455805185815290519193928716927fddf252ad1be2c89b69c2b068fc378daa952ba7f163c4a11628f55a4df523b3ef92918290030190a3505050565b3390565b600081848411156123d85760405160e560020a62461bcd02815260206004820181815283516024840152835190928392604490910191908501908083836000831561093257818101518382015260200161091a565b505050900390565b600160a060020a0381166123f357600080fd5b61240460058263ffffffff612d2b16565b604051600160a060020a038216907f33a8bb468e8361c5c40d643192eb6970b91cb87aa0200f8709f5b805087b905390600090a250565b600082820183811015612498576040805160e560020a62461bcd02815260206004820152601b60248201527f536166654d6174683a206164646974696f6e206f766572666c6f770000000000604482015290519081900360640190fd5b9392505050565b60006124aa826113fa565b801561099a575061099a82612881565b6000600160a060020a03821633148061099a575050600160a060020a031660009081526004602052604090205460ff1690565b600160a060020a03861660009081526008602052604081205460ff161561255e576040805160e560020a62461bcd02815260206004820152601460248201527f6772616e7420616c726561647920657869737473000000000000000000000000604482015290519081900360640190fd5b85851115801561256e5750600085115b80156125825750612acd63ffffffff851610155b801561259657506205bd8863ffffffff8516105b6125ea576040805160e560020a62461bcd02815260206004820152601660248201527f696e76616c69642076657374696e6720706172616d7300000000000000000000604482015290519081900360640190fd5b6125f383612881565b612647576040805160e560020a62461bcd02815260206004820152601860248201527f6e6f20737563682076657374696e67207363686564756c650000000000000000604482015290519081900360640190fd5b61265282888861221d565b6040518060c001604052806001151581526020016000151581526020018563ffffffff16815260200186815260200184600160a060020a0316815260200183600160a060020a03168152506008600089600160a060020a0316600160a060020a0316815260200190815260200160002060008201518160000160006101000a81548160ff02191690831515021790555060208201518160000160016101000a81548160ff02191690831515021790555060408201518160000160026101000a81548163ffffffff021916908363ffffffff1602179055506060820151816001015560808201518160020160006101000a815481600160a060020a030219169083600160a060020a0316021790555060a08201518160030160006101000a815481600160a060020a030219169083600160a060020a0316021790555090505081600160a060020a03168588600160a060020a03167fce19dc9f3460f5845c81c7fa52526977d7e7275df4b1d0e40ea09653252e0c758787604051808363ffffffff1663ffffffff16815260200182600160a060020a0316600160a060020a031681526020019250505060405180910390a45060019695505050505050565b600160a060020a03821661282257600080fd5b61283360058363ffffffff612d9516565b600160a060020a038216600081815260066020526040808220805460ff1916851515179055517f614c7c37719098320f845a142223983b9adcc4c3f2663971d5b0eb4c661a24e79190a25050565b600160a060020a031660009081526007602052604090205460ff1690565b6000808463ffffffff161180156128be5750610e4463ffffffff851611155b80156128d557508363ffffffff168563ffffffff16105b80156128e8575060018363ffffffff1610155b61293c576040805160e560020a62461bcd02815260206004820152601860248201527f696e76616c69642076657374696e67207363686564756c650000000000000000604482015290519081900360640190fd5b8263ffffffff168463ffffffff168161295157fe5b0663ffffffff16600014801561298257508263ffffffff168563ffffffff168161297757fe5b0663ffffffff166000145b6129c05760405160e560020a62461bcd02815260040180806020018281038252602381526020018061312c6023913960400191505060405180910390fd5b6040518060a0016040528060011515815260200183151581526020018663ffffffff1681526020018563ffffffff1681526020018463ffffffff168152506007600088600160a060020a0316600160a060020a0316815260200190815260200160002060008201518160000160006101000a81548160ff02191690831515021790555060208201518160000160016101000a81548160ff02191690831515021790555060408201518160000160026101000a81548163ffffffff021916908363ffffffff16021790555060608201518160000160066101000a81548163ffffffff021916908363ffffffff160217905550608082015181600001600a6101000a81548163ffffffff021916908363ffffffff1602179055509050508115158463ffffffff1687600160a060020a03167fb84219eaee5910cc5311a393fbd4287b14bc791973b97f64d4b61b6d8554adc78887604051808363ffffffff1663ffffffff1681526020018263ffffffff1663ffffffff1681526020019250505060405180910390a450600195945050505050565b6000610e69612b5f61237f565b848461221d565b600061249883836040518060400160405280601e81526020017f536166654d6174683a207375627472616374696f6e206f766572666c6f770000815250612383565b80612bb2816124ba565b612bf4576040805160e560020a62461bcd0281526020600482015260166024820152600080516020612ff1833981519152604482015290519081900360640190fd5b612bfc6115eb565b612c3e576040805160e560020a62461bcd02815260206004820181905260248201526000805160206130a1833981519152604482015290519081900360640190fd5b61128882612e19565b600080612c538461142b565b90506000610978612c648686611fcf565b839063ffffffff612b6616565b600063ffffffff821615612c85578161099a565b61099a611aca565b600082612c9c5750600061099a565b82820282848281612ca957fe5b04146124985760405160e560020a62461bcd0281526004018080602001828103825260218152602001806130586021913960400191505060405180910390fd5b600061249883836040518060400160405280601a81526020017f536166654d6174683a206469766973696f6e206279207a65726f000000000000815250612e6c565b612d358282611f65565b612d735760405160e560020a62461bcd0281526004018080602001828103825260218152602001806130376021913960400191505060405180910390fd5b600160a060020a0316600090815260209190915260409020805460ff19169055565b612d9f8282611f65565b15612df4576040805160e560020a62461bcd02815260206004820152601f60248201527f526f6c65733a206163636f756e7420616c72656164792068617320726f6c6500604482015290519081900360640190fd5b600160a060020a0316600090815260209190915260409020805460ff19166001179055565b612e216115eb565b612e63576040805160e560020a62461bcd02815260206004820181905260248201526000805160206130a1833981519152604482015290519081900360640190fd5b610e1281612ed4565b60008183612ebe5760405160e560020a62461bcd02815260206004820181815283516024840152835190928392604490910191908501908083836000831561093257818101518382015260200161091a565b506000838581612eca57fe5b0495945050505050565b600160a060020a038116612f1c5760405160e560020a62461bcd028152600401808060200182810382526026815260200180612fa96026913960400191505060405180910390fd5b600354604051600160a060020a038084169216907f8be0079c531659141344cd1fd0a4f28419497f9722a3daafe3b4186f6b6457e090600090a36003805473ffffffffffffffffffffffffffffffffffffffff1916600160a060020a039290921691909117905556fe45524332303a207472616e7366657220746f20746865207a65726f20616464726573734f776e61626c653a206e6577206f776e657220697320746865207a65726f206164647265737345524332303a20617070726f766520746f20746865207a65726f20616464726573736163636f756e74206e6f7420726567697374657265640000000000000000000045524332303a207472616e7366657220616d6f756e7420657863656564732062616c616e6365526f6c65733a206163636f756e7420646f6573206e6f74206861766520726f6c65536166654d6174683a206d756c7469706c69636174696f6e206f766572666c6f7745524332303a207472616e7366657220616d6f756e74206578636565647320616c6c6f77616e63654f776e61626c653a2063616c6c6572206973206e6f7420746865206f776e6572526f6c65733a206163636f756e7420697320746865207a65726f206164647265737345524332303a207472616e736665722066726f6d20746865207a65726f206164647265737345524332303a20617070726f76652066726f6d20746865207a65726f2061646472657373696e76616c696420636c6966662f6475726174696f6e20666f7220696e74657276616c45524332303a2064656372656173656420616c6c6f77616e63652062656c6f77207a65726fa165627a7a723058208354fcd659a76aeb5de94cd6d772e0ea6092be8c7261e47b81bbe0a2e160a88b0029526f6c65733a206163636f756e7420697320746865207a65726f2061646472657373",
  "source": "pragma solidity ^0.5.7;\r\n\r\nimport \"./ERC20Vestable.sol\";\r\n\r\ncontract UniformTokenGrantor is ERC20Vestable {\r\n\r\n    struct restrictions {\r\n        bool isValid;\r\n        uint32 minStartDay;\r\n        uint32 maxStartDay;\r\n        uint32 expirationDay;\r\n    }\r\n\r\n    mapping(address => restrictions) private _restrictions;\r\n\r\n    event GrantorRestrictionsSet(\r\n        address indexed grantor,\r\n        uint32 minStartDay,\r\n        uint32 maxStartDay,\r\n        uint32 expirationDay);\r\n\r\n    function setRestrictions(\r\n        address grantor,\r\n        uint32 minStartDay,\r\n        uint32 maxStartDay,\r\n        uint32 expirationDay\r\n    )\r\n    public\r\n    onlyOwner\r\n    onlyExistingAccount(grantor)\r\n    returns (bool ok)\r\n    {\r\n        require(\r\n            isUniformGrantor(grantor)\r\n         && maxStartDay > minStartDay\r\n         && expirationDay > today(), \"invalid params\");\r\n\r\n        _restrictions[grantor] = restrictions(\r\n            true/*isValid*/,\r\n            minStartDay,\r\n            maxStartDay,\r\n            expirationDay\r\n        );\r\n\r\n        emit GrantorRestrictionsSet(grantor, minStartDay, maxStartDay, expirationDay);\r\n        return true;\r\n    }\r\n\r\n    function setGrantorVestingSchedule(\r\n        address grantor,\r\n        uint32 duration,\r\n        uint32 cliffDuration,\r\n        uint32 interval,\r\n        bool isRevocable\r\n    )\r\n    public\r\n    onlyOwner\r\n    onlyExistingAccount(grantor)\r\n    returns (bool ok)\r\n    {\r\n        require(isUniformGrantor(grantor), \"uniform grantor only\");\r\n        require(!_hasVestingSchedule(grantor), \"schedule already exists\");\r\n        _setVestingSchedule(grantor, cliffDuration, duration, interval, isRevocable);\r\n\r\n        return true;\r\n    }\r\n\r\n    function isUniformGrantorWithSchedule(address account) internal view returns (bool ok) {\r\n        return isUniformGrantor(account) && _hasVestingSchedule(account);\r\n    }\r\n\r\n    modifier onlyUniformGrantorWithSchedule(address account) {\r\n        require(isUniformGrantorWithSchedule(account), \"grantor account not ready\");\r\n        _;\r\n    }\r\n\r\n    modifier whenGrantorRestrictionsMet(uint32 startDay) {\r\n        restrictions storage restriction = _restrictions[msg.sender];\r\n        require(restriction.isValid, \"set restrictions first\");\r\n\r\n        require(\r\n            startDay >= restriction.minStartDay\r\n            && startDay < restriction.maxStartDay, \"startDay too early\");\r\n\r\n        require(today() < restriction.expirationDay, \"grantor expired\");\r\n        _;\r\n    }\r\n    \r\n    function grantUniformVestingTokens(\r\n        address beneficiary,\r\n        uint256 totalAmount,\r\n        uint256 vestingAmount,\r\n        uint32 startDay\r\n    )\r\n    public\r\n    onlyUniformGrantorWithSchedule(msg.sender)\r\n    whenGrantorRestrictionsMet(startDay)\r\n    returns (bool ok)\r\n    {\r\n        return _grantVestingTokens(beneficiary, totalAmount, vestingAmount, startDay, msg.sender, msg.sender);\r\n    }\r\n\r\n    function safeGrantUniformVestingTokens(\r\n        address beneficiary,\r\n        uint256 totalAmount,\r\n        uint256 vestingAmount,\r\n        uint32 startDay\r\n    )\r\n    public\r\n    onlyUniformGrantorWithSchedule(msg.sender)\r\n    whenGrantorRestrictionsMet(startDay)\r\n    onlyExistingAccount(beneficiary)\r\n    returns (bool ok)\r\n    {\r\n        return _grantVestingTokens(beneficiary, totalAmount, vestingAmount, startDay, msg.sender, msg.sender);\r\n    }\r\n}\r\n",
  "sourcePath": "/Volumes/BigDump/Development/FANVestingToken/contracts/UniformTokenGrantor.sol",
  "compiler": {
    "name": "solc",
    "version": "0.5.7+commit.6da8b019.Emscripten.clang"
  },
  "schemaVersion": "3.4.8",
  "updatedAt": "2022-08-27T16:20:53.300Z",
  "devdoc": {
    "methods": {
      "allowance(address,address)": {
        "details": "See {IERC20-allowance}."
      },
      "balanceOf(address)": {
        "details": "See {IERC20-balanceOf}."
      },
      "decreaseAllowance(address,uint256)": {
        "details": "Atomically decreases the allowance granted to `spender` by the caller.     * This is an alternative to {approve} that can be used as a mitigation for problems described in {IERC20-approve}.     * Emits an {Approval} event indicating the updated allowance.     * Requirements:     * - `spender` cannot be the zero address. - `spender` must have allowance for the caller of at least `subtractedValue`."
      },
      "increaseAllowance(address,uint256)": {
        "details": "Atomically increases the allowance granted to `spender` by the caller.     * This is an alternative to {approve} that can be used as a mitigation for problems described in {IERC20-approve}.     * Emits an {Approval} event indicating the updated allowance.     * Requirements:     * - `spender` cannot be the zero address."
      },
      "isOwner()": {
        "details": "Returns true if the caller is the current owner."
      },
      "owner()": {
        "details": "Returns the address of the current owner."
      },
      "totalSupply()": {
        "details": "See {IERC20-totalSupply}."
      },
      "transferFrom(address,address,uint256)": {
        "details": "See {IERC20-transferFrom}.     * Emits an {Approval} event indicating the updated allowance. This is not required by the EIP. See the note at the beginning of {ERC20};     * Requirements: - `sender` and `recipient` cannot be the zero address. - `sender` must have a balance of at least `amount`. - the caller must have allowance for `sender`'s tokens of at least `amount`."
      }
    }
  },
  "userdoc": {
    "methods": {}
  }
}